:020000040800F2
:10000000180800209D020008F5020008F50200080B
:10001000F5020008F5020008F502000800000000E3
:10002000000000000000000000000000F5020008D1
:10003000F502000800000000F5020008F5020008C3
:10004000F5020008F5020008F5020008F5020008B4
:10005000F5020008F5020008F5020008F5020008A4
:10006000F5020008F5020008F5020008F502000894
:10007000F5020008F5020008F5020008F502000884
:10008000F5020008F5020008F5020008F502000874
:10009000F5020008F5020008F5020008F502000864
:1000A000F5020008F5020008F5020008F502000854
:1000B000F5020008F5020008F5020008F502000844
:1000C000F5020008F5020008F5020008F502000834
:1000D000F5020008F5020008F5020008F502000824
:1000E000F5020008F5020008F5020008F502000814
:1000F000F5020008F5020008F5020008F502000804
:10010000F5020008F5020008F5020008F5020008F3
:10011000F5020008F5020008F5020008F5020008E3
:10012000F5020008F5020008F5020008F5020008D3
:10013000F5020008F5020008F5020008F5020008C3
:10014000F5020008F5020008F5020008F5020008B3
:10015000F5020008F5020008F5020008F5020008A3
:10016000F5020008F5020008F5020008F502000893
:10017000F5020008F5020008F5020008F502000883
:10018000F5020008F502000880B500AF4FF00050FE
:10019000012100F09BF94FF00050002100F096F98A
:1001A00080BD00BF80B485B000AF786039600023A7
:1001B000FB600023BB60134B1B68FB607B6840F651
:1001C000FE7202FA03F3DB43FA681340FB603B68FC
:1001D0001A683B685B681A433B689B681A433B6834
:1001E000DB681343BB607B68BA6802FA03F3FA6802
:1001F0001343FB60034AFB6813601437BD465DF888
:10020000047B70470074004080B483B000AF786016
:100210000B46FB70FB78002B09D00C490B4B1A687E
:100220007B68012000FA03F313430B6009E00749E0
:10023000064B1A687B68012000FA03F3DB43134086
:100240000B600C37BD465DF8047B704700740040BE
:1002500080B483B000AF78600B46FB70FB78002B56
:100260000AD00D490C4B1A687B684FF4805000FA95
:1002700003F313430B600AE00749074B1A687B68D6
:100280004FF4805000FA03F3DB4313400B600C374C
:10029000BD465DF8047B70470074004080B582B0B5
:1002A00000AF0F4B7B600F4B3B6007E03B681A1DB4
:1002B0003A607A68111D796012681A603B680A4AD0
:1002C0009342F3D309480A494FF000028842B8BF6D
:1002D00040F8042BFADB00F011F80837BD4680BD6A
:1002E0003C0A000800000020040000200400002058
:1002F0001400002080B400AFFEE700BF80B500AF5F
:1003000000F002F8184680BD80B582B000AF1148F9
:10031000012100F09FF84FF00050012100F0B8F8E3
:1003200020233B6003233B710023FB713B460A48BB
:10033000194600F0E9F800F013F8084B1B78DBB21F
:10034000002B06D0FFF720FF00F030F8034B00220F
:100350001A70F2E7010020000000024000000020B7
:1003600080B584B000AF1020012100F091F83B1D52
:10037000184600F005FB40F6FF73BB600023BB800E
:100380000023BB810023FB803B1D0748194600F07A
:100390008DFA0548202100F02DFB0348012100F0D3
:1003A00009FB1037BD4680BD0010004080B590B0FD
:1003B00000AF244B04221A60224B00225A60214BCA
:1003C0000022DA6010201F49FFF7ECFE1E4800F003
:1003D00029F94FF060637B601C4BBB601C4BFB60DA
:1003E00040233B6108237B610023BB614FF48063A2
:1003F000FB614FF400633B624FF400537B624FF4A8
:100400008073BB624FF40033FB6200233B63012324
:100410007B630023BB630023FB633B1D0A48194633
:1004200000F0D2F90848012100F024FA102001213F
:10043000FFF7EAFE10200121FFF70AFF4037BD4613
:1004400080BD00BF04000020A06002401474004082
:100450002C0A000880B483B000AF78600B46FB70B4
:10046000FB78002B06D00949084B1A6B7B681343B5
:100470000B6306E00549054B1A6B7B68DB431340B1
:100480000B630C37BD465DF8047B704700380240B3
:1004900080B483B000AF78600B46FB70FB78002B14
:1004A00006D00949084B1A6C7B6813430B6406E0BD
:1004B0000549054B1A6C7B68DB4313400B640C3712
:1004C000BD465DF8047B70470038024080B483B0BD
:1004D00000AF78600B46FB70FB78002B06D0094913
:1004E000084B1A6A7B6813430B6206E00549054B0B
:1004F0001A6A7B68DB4313400B620C37BD465DF81C
:10050000047B70470038024080B487B000AF786049
:10051000396000237B6100233B610023FB600023E3
:100520007B6176E07B69012202FA03F33B613B6861
:100530001A683B691340FB60FA683B699A4265D1CF
:100540007B681A687B695B00194603238B40DB4399
:100550001A407B681A607B681A683B681B791946E9
:100560007B695B0001FA03F31A437B681A603B68FE
:100570001B79012B03D03B681B79022B2ED17B68A2
:100580009A687B695B00194603238B40DB431A4062
:100590007B689A607B689A683B685B7919467B69DF
:1005A0005B0001FA03F31A437B689A607B685A6820
:1005B0007B699BB2194601238B40DB431A407B6861
:1005C0005A607B685B683A68927911467A6992B2A0
:1005D00001FA02F292B21A437B685A607B68DA68C9
:1005E0007B699BB25B00032101FA03F3DB431A40F2
:1005F0007B68DA607B68DA683B68DB7919467B697F
:100600005B0001FA03F31A437B68DA607B6901330C
:100610007B617B690F2B85D91C37BD465DF8047B58
:10062000704700BF80B483B000AF78607B681B6800
:1006300023F001027B681A607B6800221A607B68E5
:1006400000225A607B6800229A607B680022DA6090
:100650007B6800221A617B6821225A617B68454AC7
:10066000934203D1444B3D229A607EE07B68434A2B
:10067000934204D1404B4FF474629A6075E07B68FA
:100680003F4A934204D13C4B4FF474129A606CE0A1
:100690007B683C4A934204D1374B4FF074629A60B6
:1006A00063E07B68384A934203D1334B374ADA60C0
:1006B0005BE07B68364A934203D12F4B354ADA60C0
:1006C00053E07B68344A934203D12B4B334ADA60C0
:1006D0004BE07B68324A934204D1274B4FF03D52A6
:1006E000DA6042E07B682F4A934203D12E4B3D22D1
:1006F0009A603AE07B682D4A934204D12A4B4FF42A
:1007000074629A6031E07B68294A934204D1264B97
:100710004FF474129A6028E07B68264A934204D111
:10072000214B4FF074629A601FE07B68224A93422B
:1007300003D11D4B154ADA6017E07B681F4A9342CC
:1007400003D1194B134ADA600FE07B681C4A9342CD
:1007500003D1154B114ADA6007E07B68194A9342CE
:1007600003D1114B4FF03D52DA600C37BD465DF8B6
:10077000047B704710600240006002402860024025
:100780004060024058600240706002403D0000201E
:1007900088600240400F0020A060024000003D2021
:1007A000B8600240106402400064024028640240C5
:1007B0004064024058640240706402408864024011
:1007C000A0640240B864024080B485B000AF786095
:1007D00039600023FB607B681B68FB60FA68244B70
:1007E0001340FB603B681A683B68DB681A433B6850
:1007F0005B691A433B689B691A433B68DB691A4390
:100800003B681B6A1A433B685B6A1A433B689B6AF6
:100810001A433B685B6B1A433B689B6B1343FA6854
:100820001343FB607B68FA681A607B685B69FB6056
:10083000FB6823F00703FB603B68DA6A3B681B6BCD
:100840001343FA681343FB607B68FA685A613B689C
:100850001A697B685A603B685A687B689A603B6893
:100860009A687B68DA601437BD465DF8047B704790
:100870003F801CF080B483B000AF78600B46FB7003
:10088000FB78002B06D07B681B6843F001027B6875
:100890001A6005E07B681B6823F001027B681A6020
:1008A0000C37BD465DF8047B704700BF80B485B04F
:1008B00000AF786039600023FB817B681B88FB8177
:1008C0007B68284A934213D07B68274A93420FD013
:1008D0007B68B3F1804F0BD07B68244A934207D0EA
:1008E0007B68234A934203D07B68224A934208D113
:1008F000FB8923F07003FB813B685A88FB89134313
:10090000FB817B681C4A93420CD07B681B4A934254
:1009100008D0FB8923F44073FB813B681A89FB896B
:100920001343FB817B68FA891A803B685A687B68AD
:10093000DA623B681A887B681A857B68094A9342A9
:1009400003D07B68084A934204D13B689B7A9AB2F1
:100950007B681A867B6801229A821437BD465DF84F
:10096000047B704700000140000401400004004087
:1009700000080040000C004000100040001400403F
:1009800080B483B000AF78607B684FF0FF325A606C
:100990007B6800221A807B6800221A817B68002213
:1009A0005A807B6800229A720C37BD465DF8047B42
:1009B000704700BF80B483B000AF78600B46FB7017
:1009C000FB78002B08D07B681B889BB243F00103A7
:1009D0009AB27B681A8007E07B681B889BB223F081
:1009E00001039AB27B681A800C37BD465DF8047B20
:1009F000704700BF80B483B000AF78600B467B8047
:100A00007B689B889BB223F070039AB27B689A80C4
:100A10007B689B889AB27B8813439AB27B689A80E2
:100A20000C37BD465DF8047B704700BFFF0F000028
:0C0A3000FF0F0000FF0F0000FF0F000090
:040A3C0001000000B5
:0400000508000000EF
:00000001FF
