:020000040800F2
:100000000808002089010008E1010008E10100085A
:10001000E1010008E1010008E10100080000000022
:10002000000000000000000000000000E1010008E6
:10003000E101000800000000E1010008E101000802
:10004000E1010008E1010008E1010008E101000808
:10005000E1010008E1010008E1010008E1010008F8
:10006000E1010008E1010008E1010008E1010008E8
:10007000E1010008E1010008E1010008E1010008D8
:10008000E1010008E1010008E1010008E1010008C8
:10009000E1010008E1010008E1010008E1010008B8
:1000A000E1010008E1010008E1010008E1010008A8
:1000B000E1010008E1010008E1010008E101000898
:1000C000E1010008E1010008E1010008E101000888
:1000D000E1010008E1010008E1010008E101000878
:1000E000E1010008E1010008E1010008E101000868
:1000F000E1010008E1010008E1010008E101000858
:10010000E1010008E1010008E1010008E101000847
:10011000E1010008E1010008E1010008E101000837
:10012000E1010008E1010008E1010008E101000827
:10013000E1010008E1010008E1010008E101000817
:10014000E1010008E1010008E1010008E101000807
:10015000E1010008E1010008E1010008E1010008F7
:10016000E1010008E1010008E1010008E1010008E7
:10017000E1010008E1010008E1010008E1010008D7
:10018000E1010008E101000880B582B000AF0F4B2B
:100190007B600F4B3B6007E03B681A1D3A607A6852
:1001A000111D796012681A603B680A4A9342F3D3C2
:1001B00009480A494FF000028842B8BF40F8042BB2
:1001C000FADB00F06FF80837BD4680BD5408000820
:1001D000000000200000002000000020040000209B
:1001E00080B400AFFEE700BF80B500AF042001215E
:1001F00000F078F84FF48070012100F091F880BD94
:1002000080B582B000AF3B46184600F009FB0123E1
:100210003B6003233B710023FB713B4603481946B7
:1002200000F070FA0837BD4680BD00BF00080240EC
:1002300080B58AB000AF0023BB610023FB610023BF
:100240003B6200237B6207F11803184600F0F8F8C0
:1002500000233B6000233B7101237B710023BB60C3
:100260000023FB6000233B6101233B753B4618469E
:1002700000F0C8F83B460A48194600F06FF80848F5
:100280000A210122072300F01FF90548012100F08F
:10029000F5F90348012100F0FBF82837BD4680BD81
:1002A0000020014080B500AFFFF79EFFFFF7A8FFD9
:1002B000FFF7BEFF094800F0D1F900BF074802214F
:1002C00000F006FA0346002BF8D0044800F0F2F9DB
:1002D00003461A46024B1A80ECE700BF002001409B
:1002E0000000002080B483B000AF78600B46FB7044
:1002F000FB78002B06D00949084B1A6B7B68134327
:100300000B6306E00549054B1A6B7B68DB43134022
:100310000B630C37BD465DF8047B70470038024024
:1003200080B483B000AF78600B46FB70FB78002B85
:1003300006D00949084B5A6C7B6813434B6406E0AE
:100340000549054B5A6C7B68DB4313404B640C3703
:10035000BD465DF8047B70470038024080B485B02C
:1003600000AF786039600023FB600023FB727B687C
:100370005B68FB60FB6823F0407323F48073FB60D1
:100380003B681B791A023B681B681343FA681343E6
:10039000FB607B68FA685A607B689B68FB60FA6860
:1003A000174B1340FB603B681A693B68DB681A43D4
:1003B0003B689B681A433B685B795B001343FA68B0
:1003C0001343FB607B68FA689A607B68DB6AFB60BA
:1003D000FB6823F47003FB603B681B7D013BDAB2D2
:1003E000FB7A1343FB72FB7A1B05FA681343FB602D
:1003F0007B68FA68DA621437BD465DF8047B7047A3
:10040000FDF7FFC080B483B000AF78607B68002246
:100410001A607B6800221A717B6800225A717B681F
:1004200000229A607B680022DA607B6800221A61F1
:100430007B6801221A750C37BD465DF8047B704756
:1004400080B485B000AF78600023FB600E4B5B6822
:10045000FB60FA680D4B1340FB607B681A687B6891
:100460005B681A437B689B681A437B68DB681343AD
:10047000FA681343FB60044AFB6853601437BD46B7
:100480005DF8047B704700BF00230140E030FCFFB3
:1004900080B483B000AF78600B46FB70FB78002B14
:1004A00006D07B689B6843F001027B689A6005E098
:1004B0007B689B6823F001027B689A600C37BD461D
:1004C0005DF8047B704700BF80B485B000AF7860F2
:1004D000084611461A460346FB700B46BB7013468E
:1004E0007B700023FB600023BB60FB78092B23D9C2
:1004F0007B68DB68FB60FB78A3F10A0213465B00B4
:100500001344072202FA03F3BB60BB68DB43FA68BB
:100510001340FB607978FB78A3F10A0213465B0075
:10052000134401FA03F3BB60FA68BB681343FB6032
:100530007B68FA68DA601EE07B681B69FB60FA780A
:1005400013465B001344072202FA03F3BB60BB6847
:10055000DB43FA681340FB607978FA7813465B0056
:10056000134401FA03F3BB60FA68BB681343FB60F2
:100570007B68FA681A61BB78062B21D87B685B6BB5
:10058000FB60BB785A1E13469B0013441F2202FADD
:1005900003F3BB60BB68DB43FA681340FB60F97888
:1005A000BB785A1E13469B00134401FA03F3BB6049
:1005B000FA68BB681343FB607B68FA685A6347E0DC
:1005C000BB780C2B21D87B681B6BFB60BB78DA1FD8
:1005D00013469B0013441F2202FA03F3BB60BB685F
:1005E000DB43FA681340FB60F978BB78DA1F1346E7
:1005F0009B00134401FA03F3BB60FA68BB68134322
:10060000FB607B68FA681A6322E07B68DB6AFB6048
:10061000BB78A3F10D0213469B0013441F2202FA7C
:1006200003F3BB60BB68DB43FA681340FB60F978F7
:10063000BB78A3F10D0213469B00134401FA03F3A8
:10064000BB60FA68BB681343FB607B68FA68DA62D8
:100650001437BD465DF8047B704700BF80B483B09B
:1006600000AF78607B689B6843F080427B689A604B
:100670000C37BD465DF8047B704700BF80B483B083
:1006800000AF78600B46FB70FB78002B06D07B68D0
:100690009B6843F480627B689A6005E07B689B6896
:1006A00023F480627B689A600C37BD465DF8047B5A
:1006B000704700BF80B483B000AF78607B68DB6CAC
:1006C0009BB218460C37BD465DF8047B704700BFEF
:1006D00080B485B000AF78600B46FB700023FB73DD
:1006E0007B681A68FB781340002B02D00123FB7350
:1006F00001E00023FB73FB7B18461437BD465DF811
:10070000047B704780B487B000AF78603960002305
:100710007B6100233B610023FB6000237B6176E06B
:100720007B69012202FA03F33B613B681A683B696B
:100730001340FB60FA683B699A4265D17B681A688E
:100740007B695B00194603238B40DB431A407B68BF
:100750001A607B681A683B681B7919467B695B00E5
:1007600001FA03F31A437B681A603B681B79012B7B
:1007700003D03B681B79022B2ED17B689A687B697A
:100780005B00194603238B40DB431A407B689A6069
:100790007B689A683B685B7919467B695B0001FA64
:1007A00003F31A437B689A607B685A687B699BB243
:1007B000194601238B40DB431A407B685A607B68F3
:1007C0005B683A68927911467A6992B201FA02F24C
:1007D00092B21A437B685A607B68DA687B699BB285
:1007E0005B00032101FA03F3DB431A407B68DA6004
:1007F0007B68DA683B68DB7919467B695B0001FA44
:1008000003F31A437B68DA607B6901337B617B69A0
:100810000F2B85D91C37BD465DF8047B704700BFA0
:1008200080B483B000AF78607B684FF6FF721A60C7
:100830007B6800221A717B6800225A717B68002253
:100840009A717B680022DA710C37BD465DF8047B33
:04085000704700BF2E
:0400000508000000EF
:00000001FF
