:020000040800F2
:100000000008002089010008E1010008E101000862
:10001000E1010008E1010008E10100080000000022
:10002000000000000000000000000000E1010008E6
:10003000E101000800000000E1010008E101000802
:10004000E1010008E1010008E1010008E101000808
:10005000E1010008E1010008E1010008E1010008F8
:10006000E1010008E1010008E1010008E1010008E8
:10007000E1010008E1010008E1010008E1010008D8
:10008000E1010008E1010008E1010008E1010008C8
:10009000E1010008E1010008E1010008E1010008B8
:1000A000E1010008E1010008E1010008E1010008A8
:1000B000E1010008E1010008E1010008E101000898
:1000C000E1010008E1010008E1010008E101000888
:1000D000E1010008E1010008E1010008E101000878
:1000E000E1010008E1010008E1010008E101000868
:1000F000E1010008E1010008E1010008E101000858
:10010000E1010008E1010008E1010008E101000847
:10011000E1010008E1010008E1010008E101000837
:10012000E1010008E1010008E1010008E101000827
:10013000E1010008E1010008E1010008E101000817
:10014000E1010008E1010008E1010008E101000807
:10015000E1010008E1010008E1010008E1010008F7
:10016000E1010008E1010008E1010008E1010008E7
:10017000E1010008E1010008E1010008E1010008D7
:10018000E1010008E101000880B582B000AF0F4B2B
:100190007B600F4B3B6007E03B681A1D3A607A6852
:1001A000111D796012681A603B680A4A9342F3D3C2
:1001B00009480A494FF000028842B8BF40F8042BB2
:1001C000FADB00F011F80837BD4680BDBC0300081B
:1001D000000000200000002000000020000000209F
:1001E00080B400AFFEE700BF80B584B000AF082048
:1001F000012100F025F84FF42043BB600023BB73BE
:1002000001233B730023FB7303237B7307F1080374
:100210000948194600F032F807484FF4204100F031
:10022000BBF800237B6002E07B6801337B607B6866
:10023000024A9342F8DDEFE7000C02401FA10700DD
:1002400080B483B000AF78600B46FB70FB78002B66
:1002500006D00949084B1A6B7B6813430B6306E011
:100260000549054B1A6B7B68DB4313400B630C3766
:10027000BD465DF8047B70470038024080B487B00B
:1002800000AF7860396000237B6100233B6100236D
:10029000FB6000237B6176E07B69012202FA03F3B5
:1002A0003B613B681A683B691340FB60FA683B6935
:1002B0009A4265D17B681A687B695B001946032303
:1002C0008B40DB431A407B681A607B681A683B6886
:1002D0001B7919467B695B0001FA03F31A437B68BB
:1002E0001A603B681B79012B03D03B681B79022BFA
:1002F0002ED17B689A687B695B00194603238B408B
:10030000DB431A407B689A607B689A683B685B793C
:1003100019467B695B0001FA03F31A437B689A6014
:100320007B685A687B699BB2194601238B40DB438B
:100330001A407B685A607B685B683A68927911461C
:100340007A6992B201FA02F292B21A437B685A6059
:100350007B68DA687B699BB25B00032101FA03F3D7
:10036000DB431A407B68DA607B68DA683B68DB79DC
:1003700019467B695B0001FA03F31A437B68DA6074
:100380007B6901337B617B690F2B85D91C37BD46A7
:100390005DF8047B704700BF80B483B000AF786025
:1003A0000B467B807B685A697B885A407B685A6120
:0C03B0000C37BD465DF8047B704700BFB1
:0400000508000000EF
:00000001FF
