:020000040800F2
:10000000380E002001020008FD010008FD01000873
:10001000FD010008FD010008FD01000800000000CE
:10002000000000000000000000000000FD010008CA
:10003000FD01000800000000FD010008FD010008AE
:10004000FD010008FD010008FD010008FD01000898
:10005000FD010008FD010008FD010008FD01000888
:10006000FD010008FD010008FD010008FD01000878
:10007000FD010008FD010008FD010008FD01000868
:10008000FD010008FD010008E9050008FD01000868
:10009000FD010008FD010008FD010008FD01000848
:1000A000FD010008FD010008FD010008FD01000838
:1000B000FD010008FD010008FD010008FD01000828
:1000C000FD010008FD010008FD010008FD01000818
:1000D000FD010008FD010008FD010008FD01000808
:1000E000FD010008FD010008FD010008FD010008F8
:1000F000FD010008FD010008FD010008FD010008E8
:10010000FD010008FD010008FD010008FD010008D7
:10011000FD010008FD010008FD010008FD010008C7
:10012000FD010008FD010008FD010008FD010008B7
:10013000FD010008FD010008FD010008FD010008A7
:10014000FD010008FD010008FD010008FD01000897
:10015000FD010008FD010008FD010008FD01000887
:10016000FD010008FD010008FD010008FD01000877
:10017000FD010008FD010008FD010008FD01000867
:10018000FD010008FD010008F0B491E8C000094D30
:100190008C68CB682A6847EA06010C4340F6FE717A
:1001A00023438140834022EA010213432B60F0BCC9
:1001B000704700BF0074004039B9074901230A683D
:1001C000834022EA03030B607047034901230A6856
:1001D000834013430B6070470074004082B00022DC
:1001E000054B01920193019B083318440190019B38
:1001F000196002B0704700BF00740040FEE700BF06
:1002000008B50F480F4B984207D2C2431A4422F058
:10021000030204320C4900F0EBFC0C480C494FF08F
:1002200000028842B8BF40F8042BFADBDFF8240054
:10023000016841F470010160BDE8084000F00CB8AD
:1002400000000020F0010020240D0008F001002033
:100250003406002088ED00E008B500F087FB00F0D0
:1002600005FC00F097F94FF4FA4000F019F9FEE7A9
:1002700010B4214CA36803F00C03042B1BD0082BF3
:100280001CD01E4B03601C4A1D499468C4F3031420
:100290000C5DE34043609468C4F382240C5D23FA50
:1002A00004F4846092685DF8044BC2F342328A5CC5
:1002B000D340C3607047134B0360E4E76368616831
:1002C00013F4800F636818BF0E4C01F03F020CBF9F
:1002D0000A49B4FBF2F1C3F3881308BFB1FBF2F192
:1002E00001FB03F2044B5B68C3F3014301335B0082
:1002F000B2FBF3F30360C6E7003802400024F400C9
:100300000000002000127A00044A136B19B923EA96
:1003100000001063704718431063704700380240B4
:10032000044A136C19B923EA00001064704718439B
:100330001064704700380240044A536C19B923EA2C
:100340000000506470471843506470470038024002
:10035000044A536A19B923EA0000506270471843EF
:10036000506270470038024008B54FF48070012198
:10037000FFF7EEFF4FF480700021BDE80840FFF763
:10038000E7BF00BFF0B544680A6891F804C0D1F82F
:100390000CE00E698D684F790D4B24F0407424F405
:1003A0008074224342EA0C22426084684EEA0602CC
:1003B0002A432340134343EA470383600A7DC36A09
:1003C000013AD2B223F4700343EA0253C362F0BD90
:1003D000FDF7FFC0836819B923F0010383607047FC
:1003E00043F0010383607047092970B41CD9A1F15F
:1003F0000A0404EB4404C5680726A640A34025EA86
:1004000006042343062AC3601AD90C2A25D90D3ABB
:10041000C46A02EB82021F23934024EA0303914043
:100420001943C16270BC704701EB4106056907249E
:10043000B440B34025EA04042343062A0361E4D808
:10044000013A446B02EB82021F23934024EA030328
:1004500091401943416370BC7047073A046B02EB4B
:1004600082021F23934024EA03039140194301634E
:1004700070BC7047C06C80B2704700BFC9B2012326
:100480008B4022B9426822EA030343607047426806
:1004900013434360704700BF6FEA1121016070474A
:1004A0002DE9F047374CDFF8E880374F84B08246BB
:1004B000FFF75AFF01210420FFF726FF2046012500
:1004C000002600F049FA4FF0030921462F48256025
:1004D00084F80490E67100F0E5F929460220FFF760
:1004E0001FFF6846FFF7C4FE02982681A84004F16A
:1004F0000801B0FBFAF34046013BE36026826681C7
:1005000000F010FB4046202100F066FB29464046E3
:1005100000F054FB4FF4806000F0C2FA122304F1A3
:100520001400237584F81590A675E57500F0C2FADD
:1005300029464FF48070FFF7FFFE4FF000624FF046
:10054000805304F11801384662622362A662A661F4
:10055000667784F82C502677FFF714FF022338467D
:100560002A460A21FFF740FF38462A4640F2052175
:10057000FFF784FF38462946FFF72CFF04B0BDE89B
:10058000F08700BFF0010020002001400008024079
:1005900000040040012038B50146114CFFF7B4FEBD
:1005A00001214FF00050FFF7BBFE204600F0D4F9C8
:1005B00000250323102221460A4822602371E57199
:1005C00000F070F904F13001284625636563E563A6
:1005D000FFF7DAFD28460121BDE83840FFF7ECBD02
:1005E000F0010020000002402DE9F04FA54BA64885
:1005F000A64C4FF480621A8389B0FFF73BFF05B227
:10060000A34B2D0185F40045A3F84000ADB203F1E2
:10061000440003F5017650F8041F34F8022FB0426D
:1006200012FB051240F8042CF5D1586C994C9A4EE7
:1006300000F5804020F3CF30586404F5E07754F89B
:10064000041F36F8022FBC4212FB051244F8042C9A
:10065000F5D19249D3F8D463B1F8CCE1B1F8C241F5
:1006600000947746B1F8CEE1CDF810E0B1F8D0E1D2
:10067000CDF814E000FB00F0BDF800E0B1F8C45183
:100680000195C0F3CF3AB1F8CA5103951EFB0A6633
:10069000D3F8D053BDF804E0C3F8D063D3F8D863DF
:1006A000B1F8C691B1F8C84102941EFB0A68D3F8AC
:1006B000DC63BDF808E0D3F80822BDF80CB0784838
:1006C000079519FB0A6CD3F8E063D3F8EC5306974F
:1006D0001EFB0A6ED3F8E463D3F8F04302F58042C0
:1006E000D2131BFB0A6BD3F8E8638242B8BF024601
:1006F00017FB0A6647F6FF70BDF810708242A8BF6C
:10070000024617FB0A55BDF81470C3F80822C3F857
:10071000D483C3F8E853B1F8D281D3F8F453C3F8C3
:10072000E0B317FB0A4402FB02F2C2F3CF3B18FB13
:100730000A55079AC3F8EC43B1F8C041C3F8F05327
:10074000D3F80854C3F8D8C3C3F8DCE3B1F8D4C174
:10075000B1F8D6E1C3F8E46314FB0A2101F5804146
:1007600014FB0B524E4CD3F81054D3F8F863D3F863
:100770001874C91302F58042D213A142B8BF2146B2
:10078000A242B8BF22468142A8BF01468242A8BF0A
:100790000246541A24B2002CD8BF4FF40040A3F8EC
:1007A0003A04BDF80400D3F81444C3F8CC131CFB7E
:1007B0000A6610FB0B50C3F8F463D3F80C64C3F85B
:1007C0000C04BDF80800A3F80014BDF80010D3F81D
:1007D0002454C3F8042410FB0B7011FB0B6119FBAC
:1007E0000B49D3F81C64D3F82C44C3F81404A3F8C1
:1007F0003824BDF80C20C3F8081412FB0B62D3F8A0
:100800002014BDF81860D3F8FC03C3F8182416FBB5
:100810000B11BDF81060D3F83424C3F81C1416FB78
:100820000B57D3F82854BDF81460C3F8109416FB86
:100830000B5618FB0B45D3F83044C3F820741EFB4D
:100840000B221EFB0A0A1CFB0B4440F6FF71C3F887
:100850003024D8BF00210020C3F82464C3F82854F2
:10086000C3F82C44C3F8F8A3FFF7B8FC064840F2DD
:100870000521FFF711FE034B4FF480625A8309B044
:10088000BDE8F08F00100240002001400E00002063
:10089000F0010020F8030020EE00002010000020EE
:1008A0000080FFFF00222DE9F0431346D1F800E05D
:1008B00001274FF0030C04E00133102B02F1020278
:1008C00028D007FA03F404EA0E05A542F4D1D0F8C3
:1008D00000800E790CFA02F4E44304EA0808C0F838
:1008E0000080D0F8008006FA02F9013E49EA0808C3
:1008F000012EC0F800800FD9C568CE792C40C460A5
:10090000C56806FA02F401332C43102BC46002F1CF
:100910000202D6D1BDE8F083D0F8089091F80580A6
:100920008E7904EA0909C0F80890D0F8089008FA0E
:1009300002F848EA0908C0F80880D0F8048028EADC
:1009400005054560D0F8048006FA03F5ADB245EA26
:1009500008054560D0E700BF00234FF6FF72026034
:10096000037143718371C371704700BF39493A4BBA
:10097000D1F88820394842F47002C1F888201A68FA
:10098000002142F001021A6099601A6822F0847214
:1009900022F480321A6058601A6882B022F48022F1
:1009A0001A60D960009101911A6842F480321A608D
:1009B0001A4603E0009BB3F5A06F09D0136803F457
:1009C00000330193009B01330093019B002BF1D076
:1009D000214B1B6813F4003318BF01230193019BC3
:1009E000012B05D01B4B4FF000629A6002B070479C
:1009F000194B1B491A6C1B4842F080521A640A6852
:100A000042F480420A609A689A609A6842F400420E
:100A10009A609A6842F4A0529A6058601A6842F04C
:100A200080721A601A4611680B4B8901FBD50E4A79
:100A300040F2056111609A6822F003029A609A6898
:100A400042F002029A601A46936803F00C03082BE6
:100A5000FAD1C7E700ED00E0003802401030002472
:100A60000070004008544007003C024070B5102060
:100A70000121FFF749FC084B084801264FF4806527
:100A8000032400221E711D605C711946BDE8704090
:100A90009A71DA71FFF706BF2C06002000100240A1
:100AA00040F0BF60024B40F40030D860704700BF98
:100AB00000ED00E0C3785BB9037818485A0920328A
:100AC00003F01F03012101FA03F340F822307047BD
:100AD000134BF0B4D9684578827804780F4EC94337
:100AE000C1F30221C1F10407FFB20F23BD400B4146
:100AF0001340E9B20B4304F1604202F561421B016D
:100B0000DBB282F800330378012203F01F015B0996
:100B10008A4046F82320F0BC704700BF00E100E0A7
:100B200000ED00E0224A038890429BB212D002F509
:100B3000806290420ED0B0F1804F0BD0A2F580328F
:100B4000904207D002F58062904203D002F58062A5
:100B5000904203D14A8823F070031343154A904210
:100B60001ED002F5806290421AD00A8970B423F434
:100B700040730F4C4E680D889BB21343A042038014
:100B8000C662058506D00C4B984203D001238382B0
:100B900070BC70478B7A03860123838270BC7047D8
:100BA00003800B884A68C2620385012383827047F1
:100BB000000001400010004000040140038829B9F2
:100BC00023F001031B041B0C038070479BB243F00E
:100BD00001030380704700BF838823F070031B0468
:100BE0001B0C838083889BB219438180704700BFB0
:100BF000844641EA000313F003036DD1403A41D328
:100C000051F8043B40F8043B51F8043B40F8043BE6
:100C100051F8043B40F8043B51F8043B40F8043BD6
:100C200051F8043B40F8043B51F8043B40F8043BC6
:100C300051F8043B40F8043B51F8043B40F8043BB6
:100C400051F8043B40F8043B51F8043B40F8043BA6
:100C500051F8043B40F8043B51F8043B40F8043B96
:100C600051F8043B40F8043B51F8043B40F8043B86
:100C700051F8043B40F8043B51F8043B40F8043B76
:100C8000403ABDD2303211D351F8043B40F8043B16
:100C900051F8043B40F8043B51F8043B40F8043B56
:100CA00051F8043B40F8043B103AEDD20C3205D326
:100CB00051F8043B40F8043B043AF9D2043208D01E
:100CC000D2071CBF11F8013B00F8013B01D30B8890
:100CD00003806046704700BF082A13D38B078DD06E
:100CE00010F003038AD0C3F10403D21ADB071CBF40
:100CF00011F8013B00F8013B80D331F8023B20F8AA
:100D0000023B7BE7043AD9D3013A11F8013B00F8E2
:100D1000013BF9D20B7803704B7843708B7883706A
:040D20006046704772
:100D2400000000000102030401020304060708098D
:100D3400A1FCB40649022A02650164FF3FFFE500F5
:100D4400E5001BFF12FFF6000001F4FEE8FE24019B
:100D54003301BFFEB0FE600171017EFE6DFEA40191
:100D6400B70138FE25FEED010002EEFDDBFD360283
:100D74004902A7FD95FD7C028C0263FD55FDBA0274
:100D8400C90229FD1EFDEF02FA02FBFCF1FC180367
:100D94001F03DAFCD4FC31033503C8FCC6FC3B0357
:100DA4003B03C6FCC8FC35033103D4FCDAFC1F0347
:100DB4001803F1FCFBFCFA02EF021EFD29FDC90237
:100DC400BA0255FD63FD8C027C0295FDA7FD490224
:100DD4003602DBFDEEFD0002ED0125FE38FEB70113
:100DE400A4016DFE7EFE71016001B0FEBFFE330101
:100DF4002401E8FEF4FE0001F60012FF1BFFE500EB
:100E0400E5003FFF64FF65012A024902B406A1FC24
:100E14001DFBC6FA5002BEFD6D0215FF54FF3100E2
:100E240037011CFF2CFF1001AC009BFEB2FF9A019E
:100E3400E3FF45FEA000B801D2FE74FEBB01310100
:100E4400C6FD57FF9A02F9FF35FDD200C30257FED3
:100E540087FD7802EE01DBFCDBFEA1032E0028FCFB
:100E6400E200C0030BFEAAFCF2029C0240FC5EFE00
:100E740049047A0084FBC00054040DFE2EFC0103D7
:100E840001032EFC0DFE5404C00084FB7A004904C7
:100E94005EFE40FC9C02F202AAFC0BFEC003E200D0
:100EA40028FC2E00A103DBFEDBFCEE01780287FDAB
:100EB40057FEC302D20035FDF9FF9A0257FFC6FD63
:100EC4003101BB0174FED2FEB801A00045FEE3FF70
:100ED4009A01B2FF9BFEAC0010012CFF1CFF3701EE
:100EE400310054FF15FF6D02BEFD5002C6FA1DFB12
:100EF400FF0FFF0FFF0FFF0FFF0FFF0FFF0FFF0F7E
:100F0400FF0FFF0FFF0FFF0FFF0FFF0FFF0FFF0F6D
:0400000508000000EF
:00000001FF
