:020000040800F2
:10000000100B002001020008FD010008FD0100089E
:10001000FD010008FD010008FD01000800000000CE
:10002000000000000000000000000000FD010008CA
:10003000FD01000800000000FD010008FD010008AE
:10004000FD010008FD010008FD010008FD01000898
:10005000FD010008FD010008FD010008FD01000888
:10006000FD010008FD010008FD010008FD01000878
:10007000FD010008FD010008FD010008FD01000868
:10008000FD010008FD010008ED050008FD01000864
:10009000FD010008FD010008FD010008FD01000848
:1000A000FD010008FD010008FD010008FD01000838
:1000B000FD010008FD010008FD010008FD01000828
:1000C000FD010008FD010008FD010008FD01000818
:1000D000FD010008FD010008FD010008FD01000808
:1000E000FD010008FD010008FD010008FD010008F8
:1000F000FD010008FD010008FD010008FD010008E8
:10010000FD010008FD010008FD010008FD010008D7
:10011000FD010008FD010008FD010008FD010008C7
:10012000FD010008FD010008FD010008FD010008B7
:10013000FD010008FD010008FD010008FD010008A7
:10014000FD010008FD010008FD010008FD01000897
:10015000FD010008FD010008FD010008FD01000887
:10016000FD010008FD010008FD010008FD01000877
:10017000FD010008FD010008FD010008FD01000867
:10018000FD010008FD010008F0B491E8C000094D30
:100190008C68CB682A6847EA06010C4340F6FE717A
:1001A00023438140834022EA010213432B60F0BCC9
:1001B000704700BF0074004039B9074901230A683D
:1001C000834022EA03030B607047034901230A6856
:1001D000834013430B6070470074004082B00022DC
:1001E000054B01920193019B083318440190019B38
:1001F000196002B0704700BF00740040FEE700BF06
:1002000008B50F480F4B984207D2C2431A4422F058
:10021000030204320C4900F02DFD0C480C494FF04C
:1002200000028842B8BF40F8042BFADBDFF8240054
:10023000016841F470010160BDE8084000F00CB8AD
:1002400000000020DC000020A80D0008DC000020D9
:100250001003002088ED00E008B500F0C9FB00F0B5
:1002600047FC00F099F9024800F01CF9FEE700BFD6
:100270000071020010B4214CA36803F00C03042B9E
:100280001BD0082B1CD01E4B03601C4A1D499468D0
:10029000C4F303140C5DE34043609468C4F3822408
:1002A0000C5D23FA04F4846092685DF8044BC2F399
:1002B00042328A5CD340C3607047134B0360E4E76B
:1002C0006368616813F4800F636818BF0E4C01F017
:1002D0003F020CBF0A49B4FBF2F1C3F3881308BF15
:1002E000B1FBF2F101FB03F2044B5B68C3F3014382
:1002F00001335B00B2FBF3F30360C6E70038024052
:100300000024F4000000002000127A00044A136B5D
:1003100019B923EA0000106370471843106370474F
:1003200000380240044A136C19B923EA0000106433
:10033000704718431064704700380240044A536CF9
:1003400019B923EA0000506470471843506470479D
:1003500000380240044A536A19B923EA0000506287
:1003600070471843506270470038024008B54FF498
:1003700080700121FFF7EEFF4FF480700021BDE88F
:100380000840FFF7E7BF00BFF0B544680A6891F87E
:1003900004C0D1F80CE00E698D684F790D4B24F044
:1003A000407424F48074224342EA0C224260846840
:1003B0004EEA06022A432340134343EA470383607D
:1003C0000A7DC36A013AD2B223F4700343EA0253AE
:1003D000C362F0BDFDF7FFC0836819B923F00103C4
:1003E0008360704743F0010383607047092970B44C
:1003F0001CD9A1F10A0404EB4404C5680726A640F1
:10040000A34025EA06042343062AC3601AD90C2A0E
:1004100025D90D3AC46A02EB82021F23934024EAD5
:10042000030391401943C16270BC704701EB410660
:1004300005690724B440B34025EA04042343062A8F
:100440000361E4D8013A446B02EB82021F2393401C
:1004500024EA030391401943416370BC7047073A93
:10046000046B02EB82021F23934024EA03039140B2
:100470001943016370BC7047C06C80B2704700BF05
:10048000C9B201238B4022B9426822EA03034360C8
:100490007047426813434360704700BF6FEA112101
:1004A000016070472DE9F047374CDFF8E880374F9F
:1004B00084B08246FFF75AFF01210420FFF726FF90
:1004C00020460125002600F089FA4FF00309214655
:1004D0002F48256084F80490E67100F025FA29463B
:1004E0000220FFF71FFF6846FFF7C4FE029826812F
:1004F000A84004F10801B0FBFAF34046013BE36079
:100500002682668100F050FB4046202100F0A6FBC9
:100510002946404600F094FB4FF4806000F002FB57
:10052000122304F11400237584F81590A675E5755F
:1005300000F002FB29464FF48070FFF7FFFE4FF0FA
:1005400000624FF0805304F1180138466262236262
:10055000A662A661667784F82C502677FFF714FF11
:10056000022338462A460A21FFF740FF38462A462A
:1005700040F20521FFF784FF38462946FFF72CFF9C
:1005800004B0BDE8F08700BFDC000020002001407F
:100590000008024000040040012038B50146114C1B
:1005A000FFF7B4FE01214FF00050FFF7BBFE2046DD
:1005B00000F014FA00250323102221460A48226085
:1005C0002371E57100F0B0F904F13001284625638C
:1005D0006563E563FFF7D8FD28460121BDE8384093
:1005E000FFF7EABDDC000020000002402DE9F04FDB
:1005F000C44BC548C54C4FF480621A8389B0FFF7DD
:100600003BFF05B2C24B2D0185F40045A3F8400025
:10061000ADB203F1440003F1940650F8041F34F81E
:10062000022FB04212FB051240F8042CF5D15D6C8C
:10063000B848B94C05F580455D6400F18806C5F3FE
:10064000CF3550F8041F34F8022FB04212FB0512C8
:1006500040F8042CF5D1D3F89810B04CB04E01F509
:100660008041C3F8981004F18807C1F3CF3154F8E2
:10067000040F36F8022FBC4212FB050244F8042C8A
:10068000F5D1A848D3F8BC61B0F8B4400496009402
:10069000B0F8BC60B0F8B640019611FB01F1D3F898
:1006A000B461079641F3CF31049E0494A0468901BA
:1006B000D3F8C041D3F8B871B0F8B850B0F8B2E090
:1006C000B0F8BEC0CDF808C089B218FB0149D3F814
:1006D000C441B0F8C0C0B0F8BAB0CDF80CC015FB3A
:1006E00001481EFB017CD3F8C841BDF80070059598
:1006F00017FB016ABDF80450D3F82421BDF8087037
:10070000C3F8B4C11BFB0146D3F8CC41C3F8BC917C
:1007100015FB0144D3F8D051C3F8B8A117FB01551C
:1007200002F58042C3F82421B0F8C2A0BDF80C70D5
:10073000C3F8CC51D3F8D451C3F8C46117FB015CA2
:10074000B0F8C460D3F8D851C3F8C841C2F3CF326F
:10075000D3F8DC41069612FB02F216FB01441AFBA9
:100760000155079EC3F8D0C142F3CF32B0F8B0C0F4
:10077000C3F8D4519201D3F8EC51C3F8C08192B2BE
:100780001CFB01681CFB025C08F580454FEAE5395B
:10079000C3F8B051BDF80070D3F8F451C3F8D84194
:1007A0000CF5804CD3F8F041C3F8E8C14FEAEC38BF
:1007B00017FB0257BDF810C0D3F8F851A3F8E49125
:1007C0001EFB024ED3F8FC61A3F81C82C9EB08049F
:1007D000BDF81490BDF804801CFB025CD3F80052F5
:1007E00019FB0269A4B21BFB025BA3F81E42D3F8FB
:1007F0000852C3F8F891D3F80462C3F8ECE118FB8F
:100800000269BDF808E0D3F80C62C3F8F071BDF8D6
:100810000C70C3F8F4C11EFB025817FB026ED3F82C
:100820001062BDF818C0B0F8C650C3F8FCB11AFB8E
:100830000267D3F81462C3F800921CFB026CD3F871
:100840001862C3F8048215FB0262D3F8E061C3F8B2
:10085000142215FB016124B2C3F8DC112C49C3F842
:1008600008E2B4F5617FC3F80C72C3F810C2B1F8A6
:10087000202219DAC2B90125C1F82422A1F8205298
:10088000B3F82822D3F82412B0F8CA50204F254ECE
:10089000013292B20C449542A3F82822C3F82442B4
:1008A00015D0B6F8C81003E0012AE9D0B0F8C81096
:1008B0000020FFF793FC144840F20521FFF7EEFDFE
:1008C000104B4FF480625A8309B0BDE8F08FB3F843
:1008D0002A2294FBF5F4B4F5617FACBF40F6FF71BA
:1008E0000021013292B2A0F8C8100020A3F82A22F9
:1008F000A3F82802064BC7F824420B2A08BFA3F826
:100900002002D5E700100240002001400E00002028
:10091000DC000020740100203600002000020020CE
:100920007A0000201000002000222DE9F043134639
:10093000D1F800E001274FF0030C04E00133102B45
:1009400002F1020228D007FA03F404EA0E05A542D8
:10095000F4D1D0F800800E790CFA02F4E44304EAF2
:100960000808C0F80080D0F8008006FA02F9013EBD
:1009700049EA0808012EC0F800800FD9C568CE7971
:100980002C40C460C56806FA02F401332C43102BD6
:10099000C46002F10202D6D1BDE8F083D0F808901D
:1009A00091F805808E7904EA0909C0F80890D0F81A
:1009B000089008FA02F848EA0908C0F80880D0F858
:1009C000048028EA05054560D0F8048006FA03F59E
:1009D000ADB245EA08054560D0E700BF00234FF6F9
:1009E000FF720260037143718371C371704700BF6E
:1009F00039493A4BD1F88820394842F47002C1F89D
:100A000088201A68002142F001021A6099601A6871
:100A100022F0847222F480321A6058601A6882B020
:100A200022F480221A60D960009101911A6842F480
:100A300080321A601A4603E0009BB3F5A06F09D01C
:100A4000136803F400330193009B01330093019B6F
:100A5000002BF1D0214B1B6813F4003318BF012386
:100A60000193019B012B05D01B4B4FF000629A6054
:100A700002B07047194B1B491A6C1B4842F0805258
:100A80001A640A6842F480420A609A689A609A6816
:100A900042F400429A609A6842F4A0529A60586008
:100AA0001A6842F080721A601A4611680B4B89016D
:100AB000FBD50E4A40F2056111609A6822F00302EC
:100AC0009A609A6842F002029A601A46936803F0AC
:100AD0000C03082BFAD1C7E700ED00E00038024014
:100AE000103000240070004008544007003C0240D1
:100AF00070B510200121FFF709FC084B08480126BA
:100B00004FF48065032400221E711D605C7119463C
:100B1000BDE870409A71DA71FFF706BF0803002044
:100B20000010024040F0BF60024B40F40030D8603B
:100B3000704700BF00ED00E0C3785BB90378184848
:100B40005A09203203F01F03012101FA03F340F890
:100B500022307047134BF0B4D96845788278047816
:100B60000F4EC943C1F30221C1F10407FFB20F23A5
:100B7000BD400B411340E9B20B4304F1604202F562
:100B800061421B01DBB282F800330378012203F0DB
:100B90001F015B098A4046F82320F0BC704700BF64
:100BA00000E100E000ED00E0224A038890429BB2A1
:100BB00012D002F5806290420ED0B0F1804F0BD07F
:100BC000A2F58032904207D002F58062904203D0B5
:100BD00002F58062904203D14A8823F070031343E8
:100BE000154A90421ED002F5806290421AD00A89BE
:100BF00070B423F440730F4C4E680D889BB21343BE
:100C0000A0420380C662058506D00C4B984203D0F3
:100C10000123838270BC70478B7A03860123838211
:100C200070BC704703800B884A68C2620385012349
:100C30008382704700000140001000400004014022
:100C4000038829B923F001031B041B0C03807047A0
:100C50009BB243F001030380704700BF838823F0F9
:100C600070031B041B0C838083889BB21943818013
:100C7000704700BF844641EA000313F003036DD1BF
:100C8000403A41D351F8043B40F8043B51F8043B4F
:100C900040F8043B51F8043B40F8043B51F8043B56
:100CA00040F8043B51F8043B40F8043B51F8043B46
:100CB00040F8043B51F8043B40F8043B51F8043B36
:100CC00040F8043B51F8043B40F8043B51F8043B26
:100CD00040F8043B51F8043B40F8043B51F8043B16
:100CE00040F8043B51F8043B40F8043B51F8043B06
:100CF00040F8043B51F8043B40F8043B51F8043BF6
:100D000040F8043B403ABDD2303211D351F8043B95
:100D100040F8043B51F8043B40F8043B51F8043BD5
:100D200040F8043B51F8043B40F8043B103AEDD244
:100D30000C3205D351F8043B40F8043B043AF9D295
:100D4000043208D0D2071CBF11F8013B00F8013B68
:100D500001D30B8803806046704700BF082A13D375
:100D60008B078DD010F003038AD0C3F10403D21A8D
:100D7000DB071CBF11F8013B00F8013B80D331F8C1
:100D8000023B20F8023B7BE7043AD9D3013A11F841
:100D9000013B00F8013BF9D20B7803704B784370AC
:080DA0008B78837060467047F8
:100DA8000000000001020304010203040607080909
:100DB800CAFF2DFF81FEB8FE00013105B608830683
:100DC80037F798B5684AC9087DF94AF7CFFA00FF9E
:100DD80048017F01D300360033FCC90AF5174C17C8
:100DE800E1056FF768FB5F06A20425FAD3FA8906C6
:100DF800C506EEF66FF4B81361396139B8136FF4AC
:100E0800EEF6C5068906D3FA25FAA2045F0668FB42
:100E18006FF7E1054C17F517C90A33FC0B0A28FDD3
:100E28003FF1041BE1ED1000BD03C905E0F86FFCBC
:100E380021064705FDF73EF8A40C96127AC5863AB6
:100E48006AED5CF3C2070308B9FADFF991032007DA
:100E580037FA43FCF0FF1F12FCE4C10ED802F5F587
:100E680034FF7701E905CD0C0614AE18AE18061448
:0C0E7800CD0CE905770134FFFF0F881353
:0400000508000000EF
:00000001FF
