:020000040800F2
:100000009809002001020008FD010008FD01000818
:10001000FD010008FD010008FD01000800000000CE
:10002000000000000000000000000000FD010008CA
:10003000FD01000800000000FD010008FD010008AE
:10004000FD010008FD010008FD010008FD01000898
:10005000FD010008FD010008FD010008FD01000888
:10006000FD010008FD010008FD010008FD01000878
:10007000FD010008FD010008FD010008FD01000868
:10008000FD010008FD010008ED050008FD01000864
:10009000FD010008FD010008FD010008FD01000848
:1000A000FD010008FD010008FD010008FD01000838
:1000B000FD010008FD010008FD010008FD01000828
:1000C000FD010008FD010008FD010008FD01000818
:1000D000FD010008FD010008FD010008FD01000808
:1000E000FD010008FD010008FD010008FD010008F8
:1000F000FD010008FD010008FD010008FD010008E8
:10010000FD010008FD010008FD010008FD010008D7
:10011000FD010008FD010008FD010008FD010008C7
:10012000FD010008FD010008FD010008FD010008B7
:10013000FD010008FD010008FD010008FD010008A7
:10014000FD010008FD010008FD010008FD01000897
:10015000FD010008FD010008FD010008FD01000887
:10016000FD010008FD010008FD010008FD01000877
:10017000FD010008FD010008FD010008FD01000867
:10018000FD010008FD010008F0B491E8C000094D30
:100190008C68CB682A6847EA06010C4340F6FE717A
:1001A00023438140834022EA010213432B60F0BCC9
:1001B000704700BF0074004039B9074901230A683D
:1001C000834022EA03030B607047034901230A6856
:1001D000834013430B6070470074004082B00022DC
:1001E000054B01920193019B083318440190019B38
:1001F000196002B0704700BF00740040FEE700BF06
:1002000008B50F480F4B984207D2C2431A4422F058
:10021000030204320C4900F0CDFB0C480C494FF0AE
:1002200000028842B8BF40F8042BFADBDFF8240054
:10023000016841F470010160BDE8084000F00CB8AD
:100240000000002078000020E80A00087800002064
:100250009401002088ED00E008B500F069FA00F094
:10026000E7FA00F099F9024800F01CF9FEE700BF38
:100270000071020010B4214CA36803F00C03042B9E
:100280001BD0082B1CD01E4B03601C4A1D499468D0
:10029000C4F303140C5DE34043609468C4F3822408
:1002A0000C5D23FA04F4846092685DF8044BC2F399
:1002B00042328A5CD340C3607047134B0360E4E76B
:1002C0006368616813F4800F636818BF0E4C01F017
:1002D0003F020CBF0A49B4FBF2F1C3F3881308BF15
:1002E000B1FBF2F101FB03F2044B5B68C3F3014382
:1002F00001335B00B2FBF3F30360C6E70038024052
:100300000024F4000000002000127A00044A136B5D
:1003100019B923EA0000106370471843106370474F
:1003200000380240044A136C19B923EA0000106433
:10033000704718431064704700380240044A536CF9
:1003400019B923EA0000506470471843506470479D
:1003500000380240044A536A19B923EA0000506287
:1003600070471843506270470038024008B54FF498
:1003700080700121FFF7EEFF4FF480700021BDE88F
:100380000840FFF7E7BF00BFF0B544680A6891F87E
:1003900004C0D1F80CE00E698D684F790D4B24F044
:1003A000407424F48074224342EA0C224260846840
:1003B0004EEA06022A432340134343EA470383607D
:1003C0000A7DC36A013AD2B223F4700343EA0253AE
:1003D000C362F0BDFDF7FFC0836819B923F00103C4
:1003E0008360704743F0010383607047092970B44C
:1003F0001CD9A1F10A0404EB4404C5680726A640F1
:10040000A34025EA06042343062AC3601AD90C2A0E
:1004100025D90D3AC46A02EB82021F23934024EAD5
:10042000030391401943C16270BC704701EB410660
:1004300005690724B440B34025EA04042343062A8F
:100440000361E4D8013A446B02EB82021F2393401C
:1004500024EA030391401943416370BC7047073A93
:10046000046B02EB82021F23934024EA03039140B2
:100470001943016370BC7047C06C80B2704700BF05
:10048000C9B201238B4022B9426822EA03034360C8
:100490007047426813434360704700BF6FEA112101
:1004A000016070472DE9F047374CDFF8E880374F9F
:1004B00084B08246FFF75AFF01210420FFF726FF90
:1004C00020460125002600F029F94FF003092146B6
:1004D0002F48256084F80490E67100F0C5F829469D
:1004E0000220FFF71FFF6846FFF7C4FE029826812F
:1004F000A84004F10801B0FBFAF34046013BE36079
:100500002682668100F0F0F94046202100F046FA8C
:100510002946404600F034FA4FF4806000F0A2F91A
:10052000122304F11400237584F81590A675E5755F
:1005300000F0A2F929464FF48070FFF7FFFE4FF05C
:1005400000624FF0805304F1180138466262236262
:10055000A662A661667784F82C502677FFF714FF11
:10056000022338462A460A21FFF740FF38462A462A
:1005700040F20521FFF784FF38462946FFF72CFF9C
:1005800004B0BDE8F08700BF7800002000200140E3
:100590000008024000040040012038B50146114C1B
:1005A000FFF7B4FE01214FF00050FFF7BBFE2046DD
:1005B00000F0B4F800250323102221460A482260E7
:1005C0002371E57100F050F804F1300128462563ED
:1005D0006563E563FFF7D8FD28460121BDE8384093
:1005E000FFF7EABD780000200000024070B51A480D
:1005F0001A4EFFF741FF1A4AA6F840000401A4F57D
:1006000000444FF4806017491083A4B206F14403FC
:1006100006F5887553F8040F31F8022FAB4212FB30
:10062000040243F8042CF5D1736C03F58043C3F343
:10063000CF31A1F50041C1F30F1100207364FFF722
:10064000CDFD074B04484FF480625A8340F20521E8
:10065000BDE87040FFF722BF002001407800002075
:10066000001002400E00002000222DE9F043134646
:10067000D1F800E001274FF0030C04E00133102B08
:1006800002F1020228D007FA03F404EA0E05A5429B
:10069000F4D1D0F800800E790CFA02F4E44304EAB5
:1006A0000808C0F80080D0F8008006FA02F9013E80
:1006B00049EA0808012EC0F800800FD9C568CE7934
:1006C0002C40C460C56806FA02F401332C43102B99
:1006D000C46002F10202D6D1BDE8F083D0F80890E0
:1006E00091F805808E7904EA0909C0F80890D0F8DD
:1006F000089008FA02F848EA0908C0F80880D0F81B
:10070000048028EA05054560D0F8048006FA03F560
:10071000ADB245EA08054560D0E700BF00234FF6BB
:10072000FF720260037143718371C371704700BF30
:1007300039493A4BD1F88820394842F47002C1F85F
:1007400088201A68002142F001021A6099601A6834
:1007500022F0847222F480321A6058601A6882B0E3
:1007600022F480221A60D960009101911A6842F443
:1007700080321A601A4603E0009BB3F5A06F09D0DF
:10078000136803F400330193009B01330093019B32
:10079000002BF1D0214B1B6813F4003318BF012349
:1007A0000193019B012B05D01B4B4FF000629A6017
:1007B00002B07047194B1B491A6C1B4842F080521B
:1007C0001A640A6842F480420A609A689A609A68D9
:1007D00042F400429A609A6842F4A0529A605860CB
:1007E0001A6842F080721A601A4611680B4B890130
:1007F000FBD50E4A40F2056111609A6822F00302AF
:100800009A609A6842F002029A601A46936803F06E
:100810000C03082BFAD1C7E700ED00E000380240D6
:10082000103000240070004008544007003C024093
:1008300070B510200121FFF769FD084B084801261B
:100840004FF48065032400221E711D605C711946FF
:10085000BDE870409A71DA71FFF706BF8C01002085
:100860000010024040F0BF60024B40F40030D860FE
:10087000704700BF00ED00E0C3785BB9037818480B
:100880005A09203203F01F03012101FA03F340F853
:1008900022307047134BF0B4D968457882780478D9
:1008A0000F4EC943C1F30221C1F10407FFB20F2368
:1008B000BD400B411340E9B20B4304F1604202F525
:1008C00061421B01DBB282F800330378012203F09E
:1008D0001F015B098A4046F82320F0BC704700BF27
:1008E00000E100E000ED00E0224A038890429BB264
:1008F00012D002F5806290420ED0B0F1804F0BD042
:10090000A2F58032904207D002F58062904203D077
:1009100002F58062904203D14A8823F070031343AA
:10092000154A90421ED002F5806290421AD00A8980
:1009300070B423F440730F4C4E680D889BB2134380
:10094000A0420380C662058506D00C4B984203D0B6
:100950000123838270BC70478B7A038601238382D4
:1009600070BC704703800B884A68C262038501230C
:1009700083827047000001400010004000040140E5
:10098000038829B923F001031B041B0C0380704763
:100990009BB243F001030380704700BF838823F0BC
:1009A00070031B041B0C838083889BB219438180D6
:1009B000704700BF844641EA000313F003036DD182
:1009C000403A41D351F8043B40F8043B51F8043B12
:1009D00040F8043B51F8043B40F8043B51F8043B19
:1009E00040F8043B51F8043B40F8043B51F8043B09
:1009F00040F8043B51F8043B40F8043B51F8043BF9
:100A000040F8043B51F8043B40F8043B51F8043BE8
:100A100040F8043B51F8043B40F8043B51F8043BD8
:100A200040F8043B51F8043B40F8043B51F8043BC8
:100A300040F8043B51F8043B40F8043B51F8043BB8
:100A400040F8043B403ABDD2303211D351F8043B58
:100A500040F8043B51F8043B40F8043B51F8043B98
:100A600040F8043B51F8043B40F8043B103AEDD207
:100A70000C3205D351F8043B40F8043B043AF9D258
:100A8000043208D0D2071CBF11F8013B00F8013B2B
:100A900001D30B8803806046704700BF082A13D338
:100AA0008B078DD010F003038AD0C3F10403D21A50
:100AB000DB071CBF11F8013B00F8013B80D331F884
:100AC000023B20F8023B7BE7043AD9D3013A11F804
:100AD000013B00F8013BF9D20B7803704B7843706F
:080AE0008B78837060467047BB
:100AE80000000000010203040102030406070809CC
:100AF8009E0458F6D6FA43000702A8FEEBFC9B00BA
:100B08005F03FFFF61FC44FFB00384016EFCB4FD8A
:100B180043030A033DFD54FC1A022A04AFFE86FB78
:100B280072009404720086FBAFFE2A041A0254FC79
:100B38003DFD0A034303B4FD6EFC8401B00344FF8A
:100B480061FCFFFF5F039B00EBFCA8FE070243006C
:080B5800D6FA58F69E040000D5
:0400000508000000EF
:00000001FF
