:020000040800F2
:10000000000B002001020008FD010008FD010008AE
:10001000FD010008FD010008FD01000800000000CE
:10002000000000000000000000000000FD010008CA
:10003000FD01000800000000FD010008FD010008AE
:10004000FD010008FD010008FD010008FD01000898
:10005000FD010008FD010008FD010008FD01000888
:10006000FD010008FD010008FD010008FD01000878
:10007000FD010008FD010008FD010008FD01000868
:10008000FD010008FD010008ED050008FD01000864
:10009000FD010008FD010008FD010008FD01000848
:1000A000FD010008FD010008FD010008FD01000838
:1000B000FD010008FD010008FD010008FD01000828
:1000C000FD010008FD010008FD010008FD01000818
:1000D000FD010008FD010008FD010008FD01000808
:1000E000FD010008FD010008FD010008FD010008F8
:1000F000FD010008FD010008FD010008FD010008E8
:10010000FD010008FD010008FD010008FD010008D7
:10011000FD010008FD010008FD010008FD010008C7
:10012000FD010008FD010008FD010008FD010008B7
:10013000FD010008FD010008FD010008FD010008A7
:10014000FD010008FD010008FD010008FD01000897
:10015000FD010008FD010008FD010008FD01000887
:10016000FD010008FD010008FD010008FD01000877
:10017000FD010008FD010008FD010008FD01000867
:10018000FD010008FD010008F0B491E8C000094D30
:100190008C68CB682A6847EA06010C4340F6FE717A
:1001A00023438140834022EA010213432B60F0BCC9
:1001B000704700BF0074004039B9074901230A683D
:1001C000834022EA03030B607047034901230A6856
:1001D000834013430B6070470074004082B00022DC
:1001E000054B01920193019B083318440190019B38
:1001F000196002B0704700BF00740040FEE700BF06
:1002000008B50F480F4B984207D2C2431A4422F058
:10021000030204320C4900F0EFFC0C480C494FF08B
:1002200000028842B8BF40F8042BFADBDFF8240054
:10023000016841F470010160BDE8084000F00CB8AD
:1002400000000020D80000202C0D0008D80000205D
:100250000003002088ED00E008B500F08BFB00F003
:1002600009FC00F099F9024800F01CF9FEE700BF14
:100270000071020010B4214CA36803F00C03042B9E
:100280001BD0082B1CD01E4B03601C4A1D499468D0
:10029000C4F303140C5DE34043609468C4F3822408
:1002A0000C5D23FA04F4846092685DF8044BC2F399
:1002B00042328A5CD340C3607047134B0360E4E76B
:1002C0006368616813F4800F636818BF0E4C01F017
:1002D0003F020CBF0A49B4FBF2F1C3F3881308BF15
:1002E000B1FBF2F101FB03F2044B5B68C3F3014382
:1002F00001335B00B2FBF3F30360C6E70038024052
:100300000024F4000000002000127A00044A136B5D
:1003100019B923EA0000106370471843106370474F
:1003200000380240044A136C19B923EA0000106433
:10033000704718431064704700380240044A536CF9
:1003400019B923EA0000506470471843506470479D
:1003500000380240044A536A19B923EA0000506287
:1003600070471843506270470038024008B54FF498
:1003700080700121FFF7EEFF4FF480700021BDE88F
:100380000840FFF7E7BF00BFF0B544680A6891F87E
:1003900004C0D1F80CE00E698D684F790D4B24F044
:1003A000407424F48074224342EA0C224260846840
:1003B0004EEA06022A432340134343EA470383607D
:1003C0000A7DC36A013AD2B223F4700343EA0253AE
:1003D000C362F0BDFDF7FFC0836819B923F00103C4
:1003E0008360704743F0010383607047092970B44C
:1003F0001CD9A1F10A0404EB4404C5680726A640F1
:10040000A34025EA06042343062AC3601AD90C2A0E
:1004100025D90D3AC46A02EB82021F23934024EAD5
:10042000030391401943C16270BC704701EB410660
:1004300005690724B440B34025EA04042343062A8F
:100440000361E4D8013A446B02EB82021F2393401C
:1004500024EA030391401943416370BC7047073A93
:10046000046B02EB82021F23934024EA03039140B2
:100470001943016370BC7047C06C80B2704700BF05
:10048000C9B201238B4022B9426822EA03034360C8
:100490007047426813434360704700BF6FEA112101
:1004A000016070472DE9F047374CDFF8E880374F9F
:1004B00084B08246FFF75AFF01210420FFF726FF90
:1004C00020460125002600F04BFA4FF00309214693
:1004D0002F48256084F80490E67100F0E7F929467A
:1004E0000220FFF71FFF6846FFF7C4FE029826812F
:1004F000A84004F10801B0FBFAF34046013BE36079
:100500002682668100F012FB4046202100F068FB45
:100510002946404600F056FB4FF4806000F0C4FAD4
:10052000122304F11400237584F81590A675E5755F
:1005300000F0C4FA29464FF48070FFF7FFFE4FF039
:1005400000624FF0805304F1180138466262236262
:10055000A662A661667784F82C502677FFF714FF11
:10056000022338462A460A21FFF740FF38462A462A
:1005700040F20521FFF784FF38462946FFF72CFF9C
:1005800004B0BDE8F08700BFD80000200020014083
:100590000008024000040040012038B50146114C1B
:1005A000FFF7B4FE01214FF00050FFF7BBFE2046DD
:1005B00000F0D6F900250323102221460A482260C4
:1005C0002371E57100F072F904F1300128462563CA
:1005D0006563E563FFF7D8FD28460121BDE8384093
:1005E000FFF7EABDD8000020000002402DE9F04FDF
:1005F000A54BA648A64C4FF480621A8389B0FFF73A
:100600003BFF05B2A34B2D0185F40045A3F8400044
:10061000ADB203F1440003F1940650F8041F34F81E
:10062000022FB04212FB051240F8042CF5D15C6C8D
:1006300099489A4D04F580445C6400F18806C4F33F
:10064000CF3450F8041F35F8022FB04212FB0412C9
:1006500040F8042CF5D1D3F898209148914D02F53B
:100660008042C3F89820C2F3CF3B00F1880650F8CF
:10067000041F35F8022FB04212FB041240F8042C7C
:10068000F5D1894CD3F8B861B4F8B22000921BFBC5
:100690000BFBB4F8B42001924BF3CF3BD3F8BC2151
:1006A000BDF800E003924FEA8B1B1FFA8BFBB4F8F6
:1006B000B610B4F8B8A0B4F8BA50D3F8B421D3F84F
:1006C0002401B4F8BC7007921EFB0B6C039EBDF8AE
:1006D00004E003911EFB0B698E46D3F8C011B4F8F9
:1006E000BE2004951EFB0B1ED3F8C41102921AFB08
:1006F0000B18D3F8C811BDF80860059715FB0B114E
:10070000D3F8CC51C3F8B4C117FB0B5700F58042A6
:10071000D3F8D051B4F8C000C3F8242116FB0B5510
:10072000C3F8B8910646C3F8BCE1B4F8C2E006903D
:10073000D3F8D401C3F8C871C2F3CF3216FB0B074C
:10074000D3F8D801B4F8C490C3F8C41112FB02F274
:10075000D3F8DC11B4F8B0C0C3F8C081C3F8CC51F1
:10076000B4F8C680079CC3F8D0711EFB0B0542F39A
:10077000CF3219FB0B11C3F8D4519201D3F8EC51CD
:10078000BDF80000C3F8D81192B2D3F8F0111CFBE9
:100790000B4404F580441CFB025C10FB0211E513C2
:1007A000BDF80400C3F8B0410CF5804CD3F8F44117
:1007B00000914FEAEC3710FB0246791BBDF80C4064
:1007C000A3F8E451D3F8F851D3F80002C3F8E8C114
:1007D00014FB0255D3F8FC41BDF814C0A3F81C72F9
:1007E00089B21AFB024AA3F81E12BDF81040D3F8D2
:1007F0000472C3F8F0611CFB0277C3F80072BDF805
:1008000008C0D3F80872D3F80C62C3F8F4511CFB8B
:100810000277BDF818C0C3F804721CFB026CD3F851
:100820001062D3F81872C3F808C214FB02040098CF
:10083000C3F8EC011EFB026ED3F8E001D3F814629A
:10084000C3F80CE219FB026681F4004118FB027246
:1008500018FB0B07C3F8142209090020C3F8F8A1FC
:10086000C3F8FC41C3F81062C3F8DC71FFF7B6FCB3
:10087000064840F20521FFF711FE034B4FF480625A
:100880005A8309B0BDE8F08F0010024000200140FB
:100890000E000020D800002070010020360000204B
:1008A000FC0100207A0000201000002000222DE929
:1008B000F0431346D1F800E001274FF0030C04E0A9
:1008C0000133102B02F1020228D007FA03F404EAE4
:1008D0000E05A542F4D1D0F800800E790CFA02F48E
:1008E000E44304EA0808C0F80080D0F8008006FA63
:1008F00002F9013E49EA0808012EC0F800800FD92C
:10090000C568CE792C40C460C56806FA02F401338C
:100910002C43102BC46002F10202D6D1BDE8F08353
:10092000D0F8089091F805808E7904EA0909C0F89A
:100930000890D0F8089008FA02F848EA0908C0F8C8
:100940000880D0F8048028EA05054560D0F80480C6
:1009500006FA03F5ADB245EA08054560D0E700BFE9
:1009600000234FF6FF720260037143718371C371FC
:10097000704700BF39493A4BD1F88820394842F4D2
:100980007002C1F888201A68002142F001021A6042
:1009900099601A6822F0847222F480321A605860DA
:1009A0001A6882B022F480221A60D9600091019105
:1009B0001A6842F480321A601A4603E0009BB3F5CD
:1009C000A06F09D0136803F400330193009B013337
:1009D0000093019B002BF1D0214B1B6813F40033D3
:1009E00018BF01230193019B012B05D01B4B4FF036
:1009F00000629A6002B07047194B1B491A6C1B4881
:100A000042F080521A640A6842F480420A609A688E
:100A10009A609A6842F400429A609A6842F4A0523E
:100A20009A6058601A6842F080721A601A4611681B
:100A30000B4B8901FBD50E4A40F2056111609A68A3
:100A400022F003029A609A6842F002029A601A4603
:100A5000936803F00C03082BFAD1C7E700ED00E020
:100A60000038024010300024007000400854400755
:100A7000003C024070B510200121FFF747FC084BF5
:100A8000084801264FF48065032400221E711D6072
:100A90005C711946BDE870409A71DA71FFF706BFC4
:100AA000F80200200010024040F0BF60024B40F40A
:100AB0000030D860704700BF00ED00E0C3785BB93C
:100AC000037818485A09203203F01F03012101FA64
:100AD00003F340F822307047134BF0B4D9684578DF
:100AE000827804780F4EC943C1F30221C1F1040793
:100AF000FFB20F23BD400B411340E9B20B4304F199
:100B0000604202F561421B01DBB282F800330378D8
:100B1000012203F01F015B098A4046F82320F0BC44
:100B2000704700BF00E100E000ED00E0224A0388CA
:100B300090429BB212D002F5806290420ED0B0F18A
:100B4000804F0BD0A2F58032904207D002F5806230
:100B5000904203D002F58062904203D14A8823F08C
:100B600070031343154A90421ED002F580629042F2
:100B70001AD00A8970B423F440730F4C4E680D8864
:100B80009BB21343A0420380C662058506D00C4B7E
:100B9000984203D00123838270BC70478B7A03860E
:100BA0000123838270BC704703800B884A68C2624D
:100BB000038501238382704700000140001000403C
:100BC00000040140038829B923F001031B041B0C16
:100BD000038070479BB243F001030380704700BF5E
:100BE000838823F070031B041B0C838083889BB2D3
:100BF00019438180704700BF844641EA000313F027
:100C000003036DD1403A41D351F8043B40F8043B13
:100C100051F8043B40F8043B51F8043B40F8043BD6
:100C200051F8043B40F8043B51F8043B40F8043BC6
:100C300051F8043B40F8043B51F8043B40F8043BB6
:100C400051F8043B40F8043B51F8043B40F8043BA6
:100C500051F8043B40F8043B51F8043B40F8043B96
:100C600051F8043B40F8043B51F8043B40F8043B86
:100C700051F8043B40F8043B51F8043B40F8043B76
:100C800051F8043B40F8043B403ABDD2303211D316
:100C900051F8043B40F8043B51F8043B40F8043B56
:100CA00051F8043B40F8043B51F8043B40F8043B46
:100CB000103AEDD20C3205D351F8043B40F8043B16
:100CC000043AF9D2043208D0D2071CBF11F8013B14
:100CD00000F8013B01D30B8803806046704700BFDA
:100CE000082A13D38B078DD010F003038AD0C3F1E9
:100CF0000403D21ADB071CBF11F8013B00F8013BCB
:100D000080D331F8023B20F8023B7BE7043AD9D389
:100D1000013A11F8013B00F8013BF9D20B7803705E
:0C0D20004B7843708B78837060467047FE
:100D2C000000000001020304010203040607080985
:100D3C00CAFF2DFF81FEB8FE00013105B6088306FF
:100D4C0037F798B5684AC9087DF94AF7CFFA00FF1A
:100D5C0048017F01D300360033FCC90AF5174C1744
:100D6C00E1056FF768FB5F06A20425FAD3FA890642
:100D7C00C506EEF66FF4B81361396139B8136FF428
:100D8C00EEF6C5068906D3FA25FAA2045F0668FBBF
:100D9C006FF7E1054C17F517C90A33FC0B0A28FD50
:100DAC003FF1041BE1ED1000BD03C905E0F86FFC39
:100DBC0021064705FDF73EF8A40C96127AC5863A33
:100DCC006AED5CF3C2070308B9FADFF99103200757
:100DDC0037FA43FCF0FF1F12FCE4C10ED802F5F504
:100DEC0034FF7701E905CD0C0614AE18AE180614C5
:080DFC00CD0CE905770134FF7D
:0400000508000000EF
:00000001FF
