:020000040800F2
:100000006008002069020008C1020008C10200085F
:10001000C1020008C1020008C1020008000000007F
:10002000000000000000000000000000C102000805
:10003000C102000800000000C1020008C10200085F
:10004000C1020008C1020008C1020008C102000884
:10005000C1020008C1020008C1020008C102000874
:10006000C1020008C1020008C1020008C102000864
:10007000C1020008C1020008C1020008C102000854
:10008000C1020008C1020008ED090008C102000811
:10009000C1020008C1020008C1020008C102000834
:1000A000C1020008C1020008C1020008C102000824
:1000B000C1020008C1020008C1020008C102000814
:1000C000C1020008C1020008C1020008C102000804
:1000D000C1020008C1020008C1020008C1020008F4
:1000E000C1020008C1020008C1020008C1020008E4
:1000F000C1020008C1020008C1020008C1020008D4
:10010000C1020008C1020008C1020008C1020008C3
:10011000C1020008C1020008C1020008C1020008B3
:10012000C1020008C1020008C1020008C1020008A3
:10013000C1020008C1020008C1020008C102000893
:10014000C1020008C1020008C1020008C102000883
:10015000C1020008C1020008C1020008C102000873
:10016000C1020008C1020008C1020008C102000863
:10017000C1020008C1020008C1020008C102000853
:10018000C1020008C102000880B485B000AF7860E9
:1001900039600023FB600023BB60134B1B68FB60CE
:1001A0007B6840F6FE7202FA03F3DB43FA68134001
:1001B000FB603B681A683B685B681A433B689B6856
:1001C0001A433B68DB681343BB607B68BA6802FA7A
:1001D00003F3FA681343FB60034AFB6813601437A8
:1001E000BD465DF8047B70470074004080B483B066
:1001F00000AF78600B46FB70FB78002B09D00C49F0
:100200000B4B1A687B68012000FA03F313430B6061
:1002100009E00749064B1A687B68012000FA03F3DE
:10022000DB4313400B600C37BD465DF8047B704721
:100230000074004080B485B000AF78600B467B80CE
:100240000023FB60074BFB60FA687B6813440833AC
:10025000FB60FB681A467B8813601437BD465DF867
:10026000047B70470074004080B582B000AF0F4B34
:100270007B600F4B3B6007E03B681A1D3A607A6871
:10028000111D796012681A603B680A4A9342F3D3E1
:1002900009480A494FF000028842B8BF40F8042BD1
:1002A000FADB00F011F80837BD4680BD640F000886
:1002B0000000002010000020100000205C00002042
:1002C00080B400AFFEE700BF80B500AF00F06CFC6B
:1002D00000F010FD00F056FB014800F0A3FAFEE725
:1002E0000071020080B489B000AF78600023BB6168
:1002F00000237B610023FB6102233B610023FB6041
:100300000223BB60484B9B6803F00C03BB61BB69D5
:10031000042B07D0082B09D0002B3FD17B68434A20
:100320001A603FE07B68424A1A603BE03E4B5B68E4
:1003300003F480039B0DFB603B4B5B6803F03F03C2
:10034000BB60FB68002B0DD0394ABB68B2FBF3F2EF
:10035000354B596847F6C0730B409B0903FB02F30A
:10036000FB610CE0314ABB68B2FBF3F22E4B5968DB
:1003700047F6C0730B409B0903FB02F3FB612A4B5A
:100380005B6803F440331B0C01335B003B61FA698B
:100390003B69B2FBF3F27B681A6003E07B68234A97
:1003A0001A6000BF204B9B6803F0F003BB61BB6980
:1003B0001B09BB611F4ABB6913441B78DBB27B611D
:1003C0007B681A687B69DA407B685A60164B9B68C9
:1003D00003F4E053BB61BB699B0ABB61154ABB696F
:1003E00013441B78DBB27B617B685A687B69DA4017
:1003F0007B689A600C4B9B6803F46043BB61BB69EC
:100400005B0BBB610B4ABB6913441B78DBB27B619E
:100410007B685A687B69DA407B68DA602437BD46BE
:100420005DF8047B704700BF003802400024F400F0
:1004300040787D010000002080B483B000AF786078
:100440000B46FB70FB78002B06D00949084B1A6B52
:100450007B6813430B6306E00549054B1A6B7B6809
:10046000DB4313400B630C37BD465DF8047B7047DC
:100470000038024080B483B000AF78600B46FB7058
:10048000FB78002B06D00949084B1A6C7B68134394
:100490000B6406E00549054B1A6C7B68DB4313408F
:1004A0000B640C37BD465DF8047B70470038024092
:1004B00080B483B000AF78600B46FB70FB78002BF4
:1004C00006D00949084B5A6C7B6813434B6406E01D
:1004D0000549054B5A6C7B68DB4313404B640C3772
:1004E000BD465DF8047B70470038024080B483B09D
:1004F00000AF78600B46FB70FB78002B06D00949F3
:10050000084B5A6A7B6813434B6206E00549054B6A
:100510005A6A7B68DB4313404B620C37BD465DF87B
:10052000047B70470038024080B500AF4FF4807004
:100530000121FFF7DBFF4FF480700021FFF7D6FFAA
:1005400080BD00BF80B485B000AF78603960002303
:10055000FB600023FB727B685B68FB60FB6823F039
:10056000407323F48073FB603B681B791A023B687D
:100570001B681343FA681343FB607B68FA685A6090
:100580007B689B68FB60FA68174B1340FB603B6815
:100590001A693B68DB681A433B689B681A433B68EF
:1005A0005B795B001343FA681343FB607B68FA686E
:1005B0009A607B68DB6AFB60FB6823F47003FB6076
:1005C0003B681B7D013BDAB2FB7A1343FB72FB7A7B
:1005D0001B05FA681343FB607B68FA68DA6214371C
:1005E000BD465DF8047B7047FDF7FFC080B483B063
:1005F00000AF78600B46FB70FB78002B06D07B6861
:100600009B6843F001027B689A6005E07B689B6809
:1006100023F001027B689A600C37BD465DF8047BCD
:10062000704700BF80B485B000AF786008461146BF
:100630001A460346FB700B46BB7013467B700023C3
:10064000FB600023BB60FB78092B23D97B68DB6848
:10065000FB60FB78A3F10A0213465B0013440722F8
:1006600002FA03F3BB60BB68DB43FA681340FB602C
:100670007978FB78A3F10A0213465B00134401FA70
:1006800003F3BB60FA68BB681343FB607B68FA68DE
:10069000DA601EE07B681B69FB60FA7813465B003A
:1006A0001344072202FA03F3BB60BB68DB43FA681A
:1006B0001340FB607978FA7813465B00134401FA23
:1006C00003F3BB60FA68BB681343FB607B68FA689E
:1006D0001A61BB78062B21D87B685B6BFB60BB780B
:1006E0005A1E13469B0013441F2202FA03F3BB60F9
:1006F000BB68DB43FA681340FB60F978BB785A1E8D
:1007000013469B00134401FA03F3BB60FA68BB680D
:100710001343FB607B68FA685A6347E0BB780C2B95
:1007200021D87B681B6BFB60BB78DA1F13469B00EC
:1007300013441F2202FA03F3BB60BB68DB43FA6871
:100740001340FB60F978BB78DA1F13469B00134413
:1007500001FA03F3BB60FA68BB681343FB607B6874
:10076000FA681A6322E07B68DB6AFB60BB78A3F15E
:100770000D0213469B0013441F2202FA03F3BB60D1
:10078000BB68DB43FA681340FB60F978BB78A3F1E0
:100790000D0213469B00134401FA03F3BB60FA6891
:1007A000BB681343FB607B68FA68DA621437BD46A6
:1007B0005DF8047B704700BF80B483B000AF786001
:1007C0007B68DB6C9BB218460C37BD465DF8047B3A
:1007D000704700BF80B485B000AF78600B467B8067
:1007E00013467B700023FB607B88DBB2FB60FB68F9
:1007F000012202FA03F3FB607B78002B06D07B68B2
:100800005A68FB681A437B685A6006E07B685A683E
:10081000FB68DB431A407B685A601437BD465DF8BD
:10082000047B704780B582B000AF7860FFF77CFE34
:1008300000F03CF8786800F055F800F08BF84FF4C1
:1008400080700121FFF734FE164B00221A61154B10
:1008500000221A60134B00225A71124B4FF00062B3
:10086000DA60104B4FF080529A600E4B01221A75DD
:100870000C4B00221A710C480A49FFF763FE0A4824
:100880000A2101220223FFF7CDFE074840F205218D
:100890000122FFF79FFF04480121FFF7A7FE083759
:1008A000BD4680BD280000200020014080B500AF7B
:1008B00004200121FFF7C0FD084800F05BF9074B59
:1008C00001221A60054B03221A71044B0022DA71CF
:1008D0000348024900F0C0F880BD00BF10000020AE
:1008E0000008024080B588B000AF78600220012186
:1008F000FFF7DEFD07F10C031846FFF7F3FC7B69F9
:100900005B00FB61FA697B68B2FBF3F3FB61FB6997
:10091000013BFB610D4AFB6953600C4B00221A80BE
:100920000A4B00221A81094B00225A8008480749C5
:1009300000F072FA0648202100F0F8FA044801217C
:1009400000F0D4FA2037BD4680BD00BF180000205B
:100950000004004080B500AF4FF4806000F0EAF979
:10096000074B12221A70064B03225A70044B0022C6
:100970009A70034B0122DA70014800F0EDF980BD56
:100980002400002080B500AF01200121FFF754FDB5
:100990004FF000500121FFF76DFD114800F0EAF81B
:1009A0000F4B10221A600E4B03221A710C4B0022BF
:1009B000DA710C480A4900F04FF80B4B00221A601C
:1009C000094B00225A60084B0022DA6000200649D9
:1009D000FFF7DAFB00200121FFF708FC80BD00BF14
:1009E00010000020000002404000002080B500AF51
:1009F000154B4FF480621A831448FFF7DDFE03465F
:100A00001A46134B1A80124B1B88B3F5805F03D331
:100A10000F4B40F6FF721A800E4B1B88B3F5805FB8
:100A200002D30C4B00221A8000200021FFF702FCA9
:100A3000084B1B8801339AB2064B1A80024B4FF4C5
:100A400080625A8380BD00BF001002400020014038
:100A5000500000205200002080B487B000AF7860C2
:100A6000396000237B6100233B610023FB6000238E
:100A70007B6176E07B69012202FA03F33B613B680C
:100A80001A683B691340FB60FA683B699A4265D17A
:100A90007B681A687B695B00194603238B40DB4344
:100AA0001A407B681A607B681A683B681B79194694
:100AB0007B695B0001FA03F31A437B681A603B68A9
:100AC0001B79012B03D03B681B79022B2ED17B684D
:100AD0009A687B695B00194603238B40DB431A400D
:100AE0007B689A607B689A683B685B7919467B698A
:100AF0005B0001FA03F31A437B689A607B685A68CB
:100B00007B699BB2194601238B40DB431A407B680B
:100B10005A607B685B683A68927911467A6992B24A
:100B200001FA02F292B21A437B685A607B68DA6873
:100B30007B699BB25B00032101FA03F3DB431A409C
:100B40007B68DA607B68DA683B68DB7919467B6929
:100B50005B0001FA03F31A437B68DA607B690133B7
:100B60007B617B690F2B85D91C37BD465DF8047B03
:100B7000704700BF80B483B000AF78607B684FF6E9
:100B8000FF721A607B6800221A717B6800225A711A
:100B90007B6800229A717B680022DA710C37BD46AF
:100BA0005DF8047B704700BF80B500AF114A114B60
:100BB0001B6843F0010313600E4B00229A600D4A3C
:100BC0000C4B1B6823F0847323F480331360094BB0
:100BD000094A5A60074A074B1B6823F480231360B5
:100BE000044B0022DA6000F00BF8044B4FF0006277
:100BF0009A6080BD003802401030002400ED00E013
:100C000080B483B000AF00237B6000233B60354A93
:100C1000344B1B6843F480331360324B1B6803F47E
:100C200000333B607B6801337B603B68002B03D162
:100C30007B68B3F5A06FF0D12A4B1B6803F4003337
:100C4000002B02D001233B6001E000233B603B68A6
:100C5000012B42D1234A234B1B6C43F08053136476
:100C6000214A214B1B6843F4804313601D4A1D4BEE
:100C70009B6893601B4A1B4B9B6843F40043936043
:100C8000184A184B9B6843F4A0539360154B174ABE
:100C90005A60144A134B1B6843F08073136000BF03
:100CA000104B1B6803F00073002BF9D0104B40F27F
:100CB00005621A600B4A0B4B9B6823F00303936099
:100CC000084A084B9B6843F00203936000BF054B42
:100CD0009B6803F00C03082BF9D10C37BD465DF877
:100CE000047B7047003802400070004019544007F0
:100CF000003C024080B500AF10200121FFF79CFBB3
:100D00000A4B01221A71094B00229A71074B4FF4CA
:100D100080621A60054B0022DA71044B03225A717B
:100D200003480249FFF798FE80BD00BF5400002031
:100D30000010024080B483B000AF7860054A7B6841
:100D400043F0BF6343F40033D3600C37BD465DF816
:100D5000047B704700ED00E080B485B000AF7860A0
:100D60000023FB730023BB730F237B737B68DB784B
:100D7000002B38D0264BDB68DB4303F4E0631B0A0F
:100D8000FB73FB7BC3F10403BB737A7BFB7B42FAEF
:100D900003F37B737B685B781A46BB7B02FA03F331
:100DA000FB737B689A787B7B1340DAB2FB7B13433F
:100DB000FB73FB7B1B01FB73164A7B681B78134498
:100DC000FA7B83F80023134A7B681B785B09DBB24C
:100DD00018467B681B7803F01F03012101FA03F317
:100DE00042F820300FE00B497B681B785B09DBB2CF
:100DF00018467B681B7803F01F0301229A4000F11C
:100E0000200341F823201437BD465DF8047B70476A
:100E100000ED00E000E100E080B485B000AF786054
:100E200039600023FB817B681B88FB817B68284A33
:100E3000934213D07B68274A93420FD07B68B3F16B
:100E4000804F0BD07B68244A934207D07B68234AAB
:100E5000934203D07B68224A934208D1FB8923F056
:100E60007003FB813B685A88FB891343FB817B68D5
:100E70001C4A93420CD07B681B4A934208D0FB89E2
:100E800023F44073FB813B681A89FB891343FB8180
:100E90007B68FA891A803B685A687B68DA623B682B
:100EA0001A887B681A857B68094A934203D07B685D
:100EB000084A934204D13B689B7A9AB27B681A86AF
:100EC0007B6801229A821437BD465DF8047B704727
:100ED0000000014000040140000400400008004000
:100EE000000C0040001000400014004080B483B0AB
:100EF00000AF78600B46FB70FB78002B08D07B6856
:100F00001B889BB243F001039AB27B681A8007E00A
:100F10007B681B889BB223F001039AB27B681A801E
:100F20000C37BD465DF8047B704700BF80B483B0CA
:100F300000AF78600B467B807B689B889BB223F078
:100F400070039AB27B689A807B689B889AB27B8890
:100F500013439AB27B689A800C37BD465DF8047BD8
:040F6000704700BF17
:100F6400000000000102030401020304060708094B
:0400000508000000EF
:00000001FF
