:020000040800F2
:100000001808002021050008790500087905000876
:10001000790500087905000879050008000000004E
:10002000000000000000000000000000790500084A
:10003000790500080000000079050008790500082E
:100040007905000879050008790500087905000898
:100050007905000879050008790500087905000888
:100060007905000879050008790500087905000878
:100070007905000879050008790500087905000868
:100080007905000879050008790500087905000858
:100090007905000879050008790500087905000848
:1000A0007905000879050008790500087905000838
:1000B0007905000879050008790500087905000828
:1000C0007905000879050008790500087905000818
:1000D0007905000879050008790500087905000808
:1000E000B1030008790500087905000879050008C2
:1000F00079050008790500087905000879050008E8
:1001000079050008790500087905000879050008D7
:1001100079050008790500087905000879050008C7
:1001200079050008790500087905000879050008B7
:1001300079050008790500087905000879050008A7
:100140007905000879050008790500087905000897
:100150007905000879050008790500087905000887
:100160007905000879050008790500087905000877
:100170007905000879050008790500087905000867
:10018000790500087905000890B484B000AF0346F3
:100190000A46FB711346BB710023FB60BB7903F079
:1001A00003039B000F2202FA03F3FB601649BB799D
:1001B0009B08DBB21846144ABB799B08DBB20233BA
:1001C00052F82320FB68DB431A40831C41F82320AC
:1001D0000D48BB799B08DBB21C460B4ABB799B08D8
:1001E000DBB2023352F82320F979BB7903F0030321
:1001F0009B0001FA03F31A43A31C40F82320103795
:10020000BD4690BC704700BF0038014080B582B049
:1002100000AF1348012100F0B9F94FF0005001215F
:1002200000F0D2F930233B6003233B710023FB71C4
:100230003B460C48194600F021FA00F017F800F090
:100240007BF8094B1B78DBB2002B08D000F0D0F80C
:1002500000F052F800F030F8034B00221A70F0E77B
:1002600001002000000002400100002080B584B0A1
:1002700000AF1020012100F0A7F93B1D184600F047
:10028000F9FBFF23BB600023BB800023BB8100235D
:10029000FB803B1D0748194600F082FB05482021E2
:1002A00000F022FC0348012100F0FEFB1037BD46A0
:1002B00080BD00BF0010004080B500AF0D4B042290
:1002C0001A600C4B80225A600A4B4FF410629A60FD
:1002D000084B0022DA601020064900F097F8102041
:1002E000012100F0C5F800204FF4807100F0FEF805
:1002F00080BD00BF0400002080B500AF0D4B04227C
:100300001A600C4B40225A600A4B4FF420629A60EC
:10031000084B0022DA600020064900F077F8002040
:10032000012100F0A5F8042047F6F07100F0C4F8B0
:1003300080BD00BF0400002080B586B000AF402023
:10034000012100F023F94FF48040012100F05AF917
:1003500000233B750023FB754FF400433B6107F11D
:1003600010031248194600F089F906200F21FFF703
:100370000BFF4FF40043BB6000233B730C237B73E4
:100380000123BB7307F10803184600F005FA282380
:100390003B710F237B710F23BB710123FB713B1D4D
:1003A000184600F09DFA1837BD4680BD001802407F
:1003B00080B500AF4FF4004000F060FA0346002B18
:1003C00011D0094B01221A70084B1B78DBB2002BAD
:1003D0000CBF01230023DBB21A46044B1A704FF402
:1003E000004000F06FFA80BD0100002000000020F6
:1003F00080B500AF4FF00050012100F021F94FF01F
:100400000050002100F01CF980BD00BF80B485B011
:1004100000AF786039600023FB600023BB60134BA2
:100420001B68FB607B6840F6FE7202FA03F3DB4355
:10043000FA681340FB603B681A683B685B681A43C4
:100440003B689B681A433B68DB681343BB607B686F
:10045000BA6802FA03F3FA681343FB60034AFB68C5
:1004600013601437BD465DF8047B7047007400408C
:1004700080B483B000AF78600B46FB70FB78002B34
:1004800009D00C490B4B1A687B68012000FA03F372
:1004900013430B6009E00749064B1A687B6801208B
:1004A00000FA03F3DB4313400B600C37BD465DF8E5
:1004B000047B70470074004080B485B000AF786062
:1004C0000B467B800023FB60074BFB60FA687B6870
:1004D00013440833FB60FB681A467B8813601437AB
:1004E000BD465DF8047B70470074004080B485B061
:1004F00000AF78600B467B800023FB60074BFB60FE
:10050000FA687B6813441433FB60FB681A467B88E7
:1005100013601437BD465DF8047B704700740040DB
:1005200080B582B000AF0F4B7B600F4B3B6007E0A4
:100530003B681A1D3A607A68111D796012681A606A
:100540003B680A4A9342F3D309480A494FF0000234
:100550008842B8BF40F8042BFADB00F011F80837E6
:10056000BD4680BD200B00080000002004000020D4
:10057000040000201400002080B400AFFEE700BF9C
:1005800080B500AFFFF742FEFEE700BF80B483B046
:1005900000AF78600B46FB70FB78002B06D0094952
:1005A000084B1A6B7B6813430B6306E00549054B48
:1005B0001A6B7B68DB4313400B630C37BD465DF859
:1005C000047B70470038024080B483B000AF78608D
:1005D0000B46FB70FB78002B06D00949084B1A6CC0
:1005E0007B6813430B6406E00549054B1A6C7B6876
:1005F000DB4313400B640C37BD465DF8047B70474A
:100600000038024080B483B000AF78600B46FB70C6
:10061000FB78002B06D00949084B5A6C7B681343C2
:100620004B6406E00549054B5A6C7B68DB4313407D
:100630004B640C37BD465DF8047B704700380240C0
:1006400080B483B000AF78600B46FB70FB78002B62
:1006500006D00949084B1A6A7B6813430B6206E00F
:100660000549054B1A6A7B68DB4313400B620C3764
:10067000BD465DF8047B70470038024080B487B007
:1006800000AF7860396000237B6100233B61002369
:10069000FB6000237B6176E07B69012202FA03F3B1
:1006A0003B613B681A683B691340FB60FA683B6931
:1006B0009A4265D17B681A687B695B0019460323FF
:1006C0008B40DB431A407B681A607B681A683B6882
:1006D0001B7919467B695B0001FA03F31A437B68B7
:1006E0001A603B681B79012B03D03B681B79022BF6
:1006F0002ED17B689A687B695B00194603238B4087
:10070000DB431A407B689A607B689A683B685B7938
:1007100019467B695B0001FA03F31A437B689A6010
:100720007B685A687B699BB2194601238B40DB4387
:100730001A407B685A607B685B683A689279114618
:100740007A6992B201FA02F292B21A437B685A6055
:100750007B68DA687B699BB25B00032101FA03F3D3
:10076000DB431A407B68DA607B68DA683B68DB79D8
:1007700019467B695B0001FA03F31A437B68DA6070
:100780007B6901337B617B690F2B85D91C37BD46A3
:100790005DF8047B704700BF80B485B000AF78601F
:1007A0000023FB60344BFB607B689B79002B4FD0B0
:1007B0003149314B1A687B681B68DB4313400B607F
:1007C0002D492D4B5A687B681B68DB4313404B60F7
:1007D0007B681B791A46FB681344FB60FB68FA6868
:1007E00011687A6812680A431A602349224B9A6892
:1007F0007B681B68DB4313408B601F491E4BDA6824
:100800007B681B68DB431340CB607B685B79102BF4
:100810000ED11949184B9A687B681B6813438B608B
:100820001549154BDA687B681B681343CB601DE0E4
:10083000114BFB607B685B791A46FB681344FB60D5
:10084000FB68FA6811687A6812680A431A600DE05A
:100850007B681B791A46FB681344FB60FB68FA68E7
:1008600011687A681268D2430A401A601437BD468C
:100870005DF8047B704700BF003C014080B485B048
:1008800000AF78600023FB730023BB600C4B1A6839
:100890007B681340BB600A4B5A697B681340002B8E
:1008A00005D0BB68002B02D00123FB7301E00023BD
:1008B000FB73FB7B18461437BD465DF8047B70471D
:1008C000003C014080B483B000AF7860034A7B688D
:1008D00053610C37BD465DF8047B7047003C014016
:1008E00080B485B000AF78600023FB730023BB7336
:1008F0000F237B737B68DB78002B38D0264BDB68BB
:10090000DB4303F4E0631B0AFB73FB7BC3F10403CB
:10091000BB737A7BFB7B42FA03F37B737B685B7868
:100920001A46BB7B02FA03F3FB737B689A787B7BE6
:100930001340DAB2FB7B1343FB73FB7B1B01FB739E
:10094000164A7B681B781344FA7B83F80023134A0A
:100950007B681B785B09DBB218467B681B7803F069
:100960001F03012101FA03F342F820300FE00B4985
:100970007B681B785B09DBB218467B681B7803F049
:100980001F0301229A4000F1200341F8232014376D
:10099000BD465DF8047B704700ED00E000E100E03B
:1009A00080B485B000AF786039600023FB817B683C
:1009B0001B88FB817B68284A934213D07B68274AB7
:1009C00093420FD07B68B3F1804F0BD07B68244AF1
:1009D000934207D07B68234A934203D07B68224A24
:1009E000934208D1FB8923F07003FB813B685A884E
:1009F000FB891343FB817B681C4A93420CD07B68C4
:100A00001B4A934208D0FB8923F44073FB813B6867
:100A10001A89FB891343FB817B68FA891A803B683A
:100A20005A687B68DA623B681A887B681A857B683B
:100A3000094A934203D07B68084A934204D13B6839
:100A40009B7A9AB27B681A867B6801229A82143755
:100A5000BD465DF8047B7047000001400004014082
:100A60000004004000080040000C0040001000405E
:100A70000014004080B483B000AF78607B684FF012
:100A8000FF325A607B6800221A807B6800221A813C
:100A90007B6800225A807B6800229A720C37BD4620
:100AA0005DF8047B704700BF80B483B000AF78600E
:100AB0000B46FB70FB78002B08D07B681B889BB231
:100AC00043F001039AB27B681A8007E07B681B88B9
:100AD0009BB223F001039AB27B681A800C37BD46A3
:100AE0005DF8047B704700BF80B483B000AF7860CE
:100AF0000B467B807B689B889BB223F070039AB285
:100B00007B689A807B689B889AB27B8813439AB2F1
:100B10007B689A800C37BD465DF8047B704700BF48
:040B200001010000CF
:0400000508000000EF
:00000001FF
