:020000040800F2
:10000000400A002085020008DD020008DD02000829
:10001000DD020008DD020008DD020008000000002B
:10002000000000000000000000000000DD020008E9
:10003000DD02000800000000DD020008DD0200080B
:10004000DD020008DD020008DD020008DD02000814
:10005000DD020008DD020008DD020008DD02000804
:10006000DD020008DD020008DD020008DD020008F4
:10007000DD020008DD020008DD020008DD020008E4
:10008000DD020008DD020008DD020008DD020008D4
:10009000DD020008DD020008DD020008DD020008C4
:1000A000DD020008DD020008DD020008DD020008B4
:1000B000DD020008DD020008DD020008DD020008A4
:1000C000DD020008DD020008DD020008DD02000894
:1000D000DD020008DD020008DD020008DD02000884
:1000E000DD020008DD020008DD020008DD02000874
:1000F000DD020008DD020008DD020008DD02000864
:10010000DD020008DD020008DD020008DD02000853
:10011000DD020008DD020008D9090008DD02000840
:10012000DD020008DD020008DD020008DD02000833
:10013000DD020008DD020008DD020008DD02000823
:10014000DD020008DD020008DD020008DD02000813
:10015000DD020008DD020008DD020008DD02000803
:10016000DD020008DD020008DD020008DD020008F3
:10017000DD020008DD020008DD020008DD020008E3
:10018000DD020008DD02000880B500AF4FF000502E
:10019000012100F09BF94FF00050002100F096F98A
:1001A00080BD00BF80B485B000AF786039600023A7
:1001B000FB600023BB60134B1B68FB607B6840F651
:1001C000FE7202FA03F3DB43FA681340FB603B68FC
:1001D0001A683B685B681A433B689B681A433B6834
:1001E000DB681343BB607B68BA6802FA03F3FA6802
:1001F0001343FB60034AFB6813601437BD465DF888
:10020000047B70470074004080B483B000AF786016
:100210000B46FB70FB78002B09D00C490B4B1A687E
:100220007B68012000FA03F313430B6009E00749E0
:10023000064B1A687B68012000FA03F3DB43134086
:100240000B600C37BD465DF8047B704700740040BE
:1002500080B485B000AF78600B467B800023FB60E4
:10026000074BFB60FA687B6813440833FB60FB684C
:100270001A467B8813601437BD465DF8047B7047CF
:100280000074004080B582B000AF0F4B7B600F4B15
:100290003B6007E03B681A1D3A607A68111D79607F
:1002A00012681A603B680A4A9342F3D309480A4924
:1002B0004FF000028842B8BF40F8042BFADB00F090
:1002C00011F80837BD4680BDE02F0008000000206F
:1002D00014000020140000204002002080B400AF71
:1002E000FEE700BF80B500AF00F0B6F9034800F0AC
:1002F00059FA0248C82100F0EFFAFEE7A086010093
:1003000080B489B000AF78600023BB6100237B61BB
:100310000023FB6102233B610023FB600223BB60DF
:10032000484B9B6803F00C03BB61BB69042B07D0EF
:10033000082B09D0002B3FD17B68434A1A603FE06D
:100340007B68424A1A603BE03E4B5B6803F48003E3
:100350009B0DFB603B4B5B6803F03F03BB60FB689E
:10036000002B0DD0394ABB68B2FBF3F2354B59680C
:1003700047F6C0730B409B0903FB02F3FB610CE0E3
:10038000314ABB68B2FBF3F22E4B596847F6C07393
:100390000B409B0903FB02F3FB612A4B5B6803F4F0
:1003A00040331B0C01335B003B61FA693B69B2FBD4
:1003B000F3F27B681A6003E07B68234A1A6000BF8F
:1003C000204B9B6803F0F003BB61BB691B09BB6159
:1003D0001F4ABB6913441B78DBB27B617B681A68D8
:1003E0007B69DA407B685A60164B9B6803F4E053E4
:1003F000BB61BB699B0ABB61154ABB6913441B788F
:10040000DBB27B617B685A687B69DA407B689A6003
:100410000C4B9B6803F46043BB61BB695B0BBB6126
:100420000B4ABB6913441B78DBB27B617B685A685B
:100430007B69DA407B68DA602437BD465DF8047B6F
:10044000704700BF003802400024F40000127A0018
:100450000000002080B483B000AF78600B46FB70D2
:10046000FB78002B06D00949084B1A6B7B681343B5
:100470000B6306E00549054B1A6B7B68DB431340B1
:100480000B630C37BD465DF8047B704700380240B3
:1004900080B483B000AF78600B46FB70FB78002B14
:1004A00006D00949084B1A6C7B6813430B6406E0BD
:1004B0000549054B1A6C7B68DB4313400B640C3712
:1004C000BD465DF8047B70470038024080B483B0BD
:1004D00000AF78600B46FB70FB78002B06D0094913
:1004E000084B1A6A7B6813430B6206E00549054B0B
:1004F0001A6A7B68DB4313400B620C37BD465DF81C
:10050000047B70470038024080B487B000AF786049
:10051000396000237B6100233B610023FB600023E3
:100520007B6176E07B69012202FA03F33B613B6861
:100530001A683B691340FB60FA683B699A4265D1CF
:100540007B681A687B695B00194603238B40DB4399
:100550001A407B681A607B681A683B681B791946E9
:100560007B695B0001FA03F31A437B681A603B68FE
:100570001B79012B03D03B681B79022B2ED17B68A2
:100580009A687B695B00194603238B40DB431A4062
:100590007B689A607B689A683B685B7919467B69DF
:1005A0005B0001FA03F31A437B689A607B685A6820
:1005B0007B699BB2194601238B40DB431A407B6861
:1005C0005A607B685B683A68927911467A6992B2A0
:1005D00001FA02F292B21A437B685A607B68DA68C9
:1005E0007B699BB25B00032101FA03F3DB431A40F2
:1005F0007B68DA607B68DA683B68DB7919467B697F
:100600005B0001FA03F31A437B68DA607B6901330C
:100610007B617B690F2B85D91C37BD465DF8047B58
:10062000704700BF80B483B000AF78607B684FF63E
:10063000FF721A607B6800221A717B6800225A716F
:100640007B6800229A717B680022DA710C37BD4604
:100650005DF8047B704700BF80B500AF114A114BB5
:100660001B6843F0010313600E4B00229A600D4A91
:100670000C4B1B6823F0847323F480331360094B05
:10068000094A5A60074A074B1B6823F4802313600A
:10069000044B0022DA6000F00BF8044B4FF00062CC
:1006A0009A6080BD003802401030002400ED00E068
:1006B00080B483B000AF00237B6000233B60354AE9
:1006C000344B1B6843F480331360324B1B6803F4D4
:1006D00000333B607B6801337B603B68002B03D1B8
:1006E0007B68B3F5A06FF0D12A4B1B6803F400338D
:1006F000002B02D001233B6001E000233B603B68FC
:10070000012B42D1234A234B1B6C43F080531364CB
:10071000214A214B1B6843F4804313601D4A1D4B43
:100720009B6893601B4A1B4B9B6843F40043936098
:10073000184A184B9B6843F4A0539360154B174A13
:100740005A60144A134B1B6843F08073136000BF58
:10075000104B1B6803F00073002BF9D0104B40F2D4
:1007600005621A600B4A0B4B9B6823F003039360EE
:10077000084A084B9B6843F00203936000BF054B97
:100780009B6803F00C03082BF9D10C37BD465DF8CC
:10079000047B704700380240007000400854400756
:1007A000003C024080B582B000AF7860FFF7ECFCFF
:1007B00000F020F8786800F039F800F073F84FF096
:1007C00000500121FFF764FE094B04221A60084B18
:1007D00000225A60064B0022DA6000200449FFF72D
:1007E000E1FC00200121FFF70FFD0837BD4680BD69
:1007F0002C00002080B500AF01200121FFF72AFE68
:100800000848FFF70FFF074B10221A60054B032221
:100810001A71044B0022DA7103480249FFF774FE93
:1008200080BD00BF140000200000024080B588B0E9
:1008300000AF786010200121FFF72AFE07F10C03BA
:100840001846FFF75DFD7B695B00FB61FA697B6819
:10085000B2FBF3F3FB61FB69013BFB610F4AFB69F0
:1008600053600E4B00221A800C4B00221A810B4B56
:1008700000225A800A48094900F068F908482021F6
:1008800000F022FA06480121012200F0E9F90448AB
:10089000012100F0C5F92037BD4680BD1C000020B5
:1008A0000010004080B500AF4FF4806000F0DCF82D
:1008B000074B36221A70064B02225A70044B002254
:1008C0009A70034B0122DA70014800F0DFF880BD16
:1008D000280000200000000090B585B000AF7860CF
:1008E00039600023FB810023FB8140E0B7F90E4013
:1008F000B7F90E30184601F0C1FC02460B4610460F
:1009000019462DA3D3E9002301F01EFD02460B4634
:10091000104619464FF000022B4B01F03FFE0246F5
:100920000B461046194600F0EBF902460B461046FE
:10093000194623A3D3E9002301F006FD02460B4626
:10094000104619461EA3D3E9002301F04BFB0246D3
:100950000B461046194601F0B9FF03469AB21B4BED
:1009600023F81420FB899BB201339BB2FB81B7F9BA
:100970000E30FF2BBADD386802F07EF803461846C9
:100980004FF08F4102F0D0F803461C46786802F021
:1009900073F803462046194602F07AF903461846D2
:1009A00002F012FA03469AB2094B1A801437BD4678
:1009B00090BD00BFAFF30080F1D4C853FB211940B4
:1009C0000000000000F49F40000070404000002044
:1009D00010000020AFF3008080B582B000AF1C4B48
:1009E0004FF400721A831B4B1B88B3F5807F02D132
:1009F000184B00221A80174B1B881A46164B33F8E7
:100A00001230FB80154B1B8801339AB2134B1A80AE
:100A1000124B1A88124B1B889A4208D10D4B1B8827
:100A200001339AB20B4B1A800C4B00221A80FB88C0
:100A300000201946FFF70CFC0A48012100F034F9A8
:100A4000034B4FF400725A830837BD4680BD00BF88
:100A5000001002403C000020400000203E0000202A
:100A6000100000200010004080B483B000AF786018
:100A7000054A7B6843F0BF6343F40033D3600C370F
:100A8000BD465DF8047B704700ED00E080B485B0A2
:100A900000AF78600023FB730023BB730F237B73CD
:100AA0007B68DB78002B38D0264BDB68DB4303F414
:100AB000E0631B0AFB73FB7BC3F10403BB737A7B0C
:100AC000FB7B42FA03F37B737B685B781A46BB7B44
:100AD00002FA03F3FB737B689A787B7B1340DAB2EC
:100AE000FB7B1343FB73FB7B1B01FB73164A7B6889
:100AF0001B781344FA7B83F80023134A7B681B7826
:100B00005B09DBB218467B681B7803F01F030121E9
:100B100001FA03F342F820300FE00B497B681B78A1
:100B20005B09DBB218467B681B7803F01F030122C8
:100B30009A4000F1200341F823201437BD465DF8A8
:100B4000047B704700ED00E000E100E080B485B078
:100B500000AF786039600023FB817B681B88FB81D4
:100B60007B68284A934213D07B68274A93420FD070
:100B70007B68B3F1804F0BD07B68244A934207D047
:100B80007B68234A934203D07B68224A934208D170
:100B9000FB8923F07003FB813B685A88FB89134370
:100BA000FB817B681C4A93420CD07B681B4A9342B2
:100BB00008D0FB8923F44073FB813B681A89FB89C9
:100BC0001343FB817B68FA891A803B685A687B680B
:100BD000DA623B681A887B681A857B68094A934207
:100BE00003D07B68084A934204D13B689B7A9AB24F
:100BF0007B681A867B6801229A821437BD465DF8AD
:100C0000047B7047000001400004014000040040E4
:100C100000080040000C004000100040001400409C
:100C200080B483B000AF78600B46FB70FB78002B7C
:100C300008D07B681B889BB243F001039AB27B68A3
:100C40001A8007E07B681B889BB223F001039AB2ED
:100C50007B681A800C37BD465DF8047B704700BF87
:100C600080B483B000AF78600B467B8013467B7006
:100C70007B78002B08D07B689B899AB27B881343D2
:100C80009AB27B689A8109E07B689B899AB27B88DB
:100C9000DB439BB213409AB27B689A810C37BD4606
:100CA0005DF8047B704700BF80B483B000AF78600C
:100CB0000B467B807B88DB439AB27B681A820C37B9
:100CC000BD465DF8047B704780B483B000AF7860A8
:100CD0000B467B807B689B889BB223F070039AB2A3
:100CE0007B689A807B689B889AB27B8813439AB210
:100CF0007B689A800C37BD465DF8047B704700BF67
:100D000030B5224A21F00043934287B01BDD204AD0
:100D1000934205DD02460B4601F062F907B030BD93
:100D200002AA00F039F800F0030001281ED00228C2
:100D300011D010B3DDE90201DDE9042300F050FA1F
:100D400001F10041EAE7002300930022002300F0B4
:100D50006FFF07B030BD0124DDE90201DDE90423A6
:100D6000009400F065FF01F10041D7E7DDE90201E1
:100D7000DDE9042300F034FAD0E70124DDE90201C3
:100D8000DDE90423009400F053FFC7E7FB21E93FAE
:100D9000FFFFEF7F000000002DE9F04F964E21F09D
:100DA000004BB3458FB00C4640F381809246934A86
:100DB000934526DC002986A3D3E9002340F3A881CC
:100DC00001F00EF98E4B9B4504460D4600F08480E1
:100DD00081A3D3E9002301F003F902460B46CAE9D7
:100DE00000232046294601F0FBF87BA3D3E900232A
:100DF00001F0F6F80125CAE9020128460FB0BDE866
:100E0000F08F804A934540F384807F4A934559DCB4
:100E10004FEA2B55A5F21645ABEB0557394606466A
:100E200001F02CFD01F02AFA8046894602460B4665
:100E300030463946CDE9088901F0D2F80022734BDB
:100E400001F082FA0F46064601F018FD01F016FA8D
:100E500002460B468046894630463946CDE90A8926
:100E600001F0BEF80022694B01F06EFA0022002367
:100E7000CDE90C0101F0D0FC002800F075810023C1
:100E800040464946002201F0C7FC002814BF012358
:100E9000022302225E49009201912A4608A8514687
:100EA00000F0C2FA002CC0F25181054606E0C2E90A
:100EB000000100250024C2E90245002528460FB0A4
:100EC000BDE8F08F02460B4601F08AF80025CAE91A
:100ED0000201CAE90001F1E741A3D3E9002301F0CF
:100EE0007FF841A3D3E900230D46044601F078F8CA
:100EF00002460B46CAE900232946204601F070F855
:100F000039A3D3E9002301F06BF80125CAE90201F6
:100F1000D4E700F045FF36A3D3E9002306460F4689
:100F200001F012FA00223B4B01F05CF801F0A6FC44
:100F3000054601F0A3F926A3D3E90023CDE9040176
:100F400001F002FA02460B463046394601F048F8F5
:100F500021A3D3E9002380468946DDE9040101F09D
:100F6000F3F91F2DCDE902014046494656DC2A4BD4
:100F70006A1E53F822305B4550D0DDE9022301F0B0
:100F80002FF802460B46CAE9002307460E463A46AA
:100F900033464046494601F023F8DDE9022301F0DB
:100FA0001FF8002C02460B46CAE9022386DA06F136
:100FB000004601F10041CAF80070CAF80460CAF89E
:100FC0000C10CAF808006D4278E700BFAFF300804C
:100FD00000004054FB21F93F3163621A61B4D03DF7
:100FE0000000601A61B4D03D7370032E8A19A33BD0
:100FF00083C8C96D305FE43FFB21E93F7BD90240E4
:10100000FB21F93FFB213941FFFFEF7F00007041D9
:10101000882E00080000E03F082E0008DDE90223CA
:1010200000F0DEFF0E464FEA2B5BC6F30A53C3EB1C
:101030000B03102B0746CAE90001A8DD5CA3D3E926
:101040000023DDE9040101F07FF906460F46324630
:101050003B464046494600F0C3FFCDE90601DDE9C5
:1010600006234046494600F0BBFF32463B4600F0AF
:10107000B7FF51A3D3E9002306460F46DDE904017B
:1010800001F062F932463B4600F0AAFFCDE90201C9
:10109000DDE90223DDE9060100F0A2FF0E46C1F3FF
:1010A0000A51C1EB0B0B02463346BBF1310F074629
:1010B000CAE9002378DD42A3D3E90023DDE9040176
:1010C00001F042F906460F4632463B46DDE906018D
:1010D00000F086FF8046894642464B46DDE9060120
:1010E00000F07EFF32463B4600F07AFF36A3D3E99C
:1010F000002306460F46DDE9040101F025F93246DA
:101100003B4600F06DFFCDE902014046494634E719
:1011100000F068FF304B9B4504460D4626D02CA3BB
:10112000D3E9002300F05EFF02460B46CAE9002324
:101130002946204600F054FF25A3D3E9002300F000
:1011400051FF4FF0FF35CAE90201B7E6DAF8042093
:10115000DAF80C3002F1004203F100434542CAF8CC
:101160000420CAF80C30A9E6032392E610A3D3E9C1
:10117000002300F037FF10A3D3E900230D460446F7
:1011800000F030FF02460B46CAE9002329462046FC
:1011900000F026FF08A3D3E9002300F023FF4FF05F
:1011A000FF35CAE9020189E6DDE90689EFE600BFFD
:1011B0000000601A61B4D03D7370032E8A19A33BFE
:1011C0000000002E8A19A33BC14920259A837B3950
:1011D0003163621A61B4D03DFB21F93FAFF3008067
:1011E0002DE9F04F21F00047B7F1795F85B00C464B
:1011F00092469B4605466BDA01F040FB002800F062
:10120000E8802A4623462846214601F09DF874A32B
:10121000D3E900238046894601F096F872A3D3E90A
:10122000002300F0DFFE42464B4601F08DF870A32C
:10123000D3E9002300F0D4FE42464B4601F084F887
:101240006DA3D3E9002300F0CDFE42464B4601F0EA
:101250007BF86BA3D3E9002300F0C2FE42464B4665
:1012600001F072F868A3D3E9002300F0BBFE424608
:101270004B4601F069F8CDE900014046494600229D
:10128000634B01F061F8DDE9002306460F46404656
:10129000494601F059F85246804689465B46284641
:1012A000214601F051F802460B464046494600F0FF
:1012B00097FE02460B463046394600F091FE024644
:1012C0000B460020534900F08BFE05B0BDE8F08FBF
:1012D00002460B4601F038F841A3D3E900238046CB
:1012E000894601F031F840A3D3E9002300F07AFEEB
:1012F00042464B4601F028F83DA3D3E9002300F015
:101300006FFE42464B4601F01FF83BA3D3E9002392
:1013100000F068FE42464B4601F016F838A3D3E9C8
:10132000002300F05DFE42464B4601F00DF836A367
:10133000D3E9002300F056FE4B46424601F004F884
:10134000354B9F42CDE9000197DD344B9F424FF072
:10135000000238DCA7F5001300202E4916461F4670
:1013600000F03EFECDE90201404649460022284BEE
:1013700000F0EAFF32463B4600F032FEDDE9002392
:1013800006460F464046494600F0DEFF524680467C
:1013900089465B462846214600F0D6FF02460B46AA
:1013A0004046494600F01CFE02460B463046394690
:1013B00000F016FE02460B46DDE9020100F010FEC9
:1013C00005B0BDE8F08F164B164FCDE9022300267D
:1013D000CAE71049002005B0BDE8F08FAFF30080E8
:1013E000D43888BEE9FAA8BDC4B1B4BD9EEE213E92
:1013F000AD529C804F7E923E9015CB19A001FA3ED3
:101400007751C1166CC1563F4C5555555555A53FA2
:101410000000E03F0000F03F3233D33F0000E93FDF
:101420000000E73F0000D23F2DE9F04FADF51D7DF4
:101430007B4CA69E7B4D54F8264009942646D41E2C
:1014400085FB0475E417C4EBA50424EAE4741D4687
:101450000C93E34303EB4303013D02EBC303089307
:101460002B460D940395651B9C1904900A9116D484
:101470002C44013422AEA79F08E057F8250000F065
:10148000FDFE0135A542E6E9020108D0002DF4DA9F
:10149000013500200021A542E6E90201F6D1099BB1
:1014A000002B31DB099A0C9B74A901EBC20BC3EB37
:1014B0004373039A24A9DB0001EBC20800930DF5E6
:1014C000E479039B002BC0F29981049BA3F1080AE5
:1014D000009B444608EB030500260027FAE9022397
:1014E00074E8020100F030FF02460B4630463946F0
:1014F00000F078FDAC4206460F46EFD1E9E90267FD
:10150000D94508F10808DCD1099901F18043013B74
:101510009B001A1D10A8024403440F920E938B46A1
:101520004FEACB039CA91A460693BBF1000F0B446C
:1015300053E9284528DD0DF5E87A0AEB02060FAFDE
:101540000022394B2046294600F0FEFE01F096F9B4
:1015500000F094FE0022354B8046894600F0F4FEF0
:1015600002460B462046294600F03AFD01F086F976
:1015700076E9022347F8040F4946404600F032FD61
:10158000564504460D46DBD1DDF82090204629461D
:101590004A4600F095FC00224FF07F5304460D466A
:1015A00000F0D2FE00F000FC0022214B00F0CCFE47
:1015B00002460B462046294600F012FD04460D4621
:1015C00001F05CF9804600F059FE02460B462046C9
:1015D000294600F005FD4C46002C06460F4640F318
:1015E000F3800BF1FF3110ABC9F1180253F8213031
:1015F00043FA02F000FA02F510AA5D1BC9F11703C5
:1016000042F8215080441D41002D3EDDBBF1000F0A
:1016100008F1010840F38A82002214460FA911E064
:10162000902F0008ABAAAA2A0000703E000070416B
:1016300000002040C3F180700BB10860012401322A
:1016400093450DDD51F8043F002CF3D0C3F1FF1397
:10165000013203F57F4393450B604FF00104F1DC49
:10166000089B002B0EDD012B00F0B680022B09D168
:101670000BF1FF3210AB10A953F82230C3F315035E
:1016800041F82230022D00F0868030463946002293
:10169000002301F0C1F8002800F0CC80099B0BF179
:1016A000FF3A53450DDC10AB0F9803EB8B03002280
:1016B00053F8041D834242EA0102F9D1002A40F0A6
:1016C0001B82099B10AA013B52F82330002B40F0EB
:1016D0002B820E9A012352F8041D01330029FAD0FF
:1016E0005B441A460B930BF1010393424DDC0D9AB8
:1016F00003EB02090B9A0C9B09F180495B44CBEB8D
:10170000020BA79A09F1FF3902EB890200924FEA16
:10171000CB02DB00059224AA02EB030B0793069B86
:1017200074AA02EB030A4FF00008009B53F8040F61
:10173000009300F0A3FD039B002BEBE8020127DBE5
:10174000079B03EB0804069B08EB030524AB1C4432
:101750001D44049B0026A3F108090027F9E9022390
:1017600074E8020100F0F0FD02460B4630463946AF
:1017700000F038FCAC4206460F46EFD1059B08F15D
:1017800008089845EAE90267CFD1DDF82CB0C7E632
:1017900000260027F2E732463B460020C04900F011
:1017A0001FFC06460F46002C3FF46FAF089ABC4959
:1017B000002000F085FB02460B463046394600F01B
:1017C0000FFC06460F4660E711D10BF1FF3310AA5C
:1017D00052F82350ED1517E70BF1FF3210AB10A9AB
:1017E00053F82230C3F3160341F822304AE70022AF
:1017F000AC4B01F02FF858B9054646E70026002704
:10180000E9E90267D94508F108087FF45AAE7BE69A
:10181000BBF1000F08F10108C8BF02253FF7FCAE7D
:1018200032463B4600209E4900F0DAFB0225064680
:101830000F462AE7089B03955A4230463946CDF8B1
:10184000148000F03DFB0022974B04460D4601F04A
:1018500001F8002800F0E3810022944B204629463D
:1018600000F072FD01F00AF8064600F007FD0022C4
:101870008D4B00F069FD0B4602462946204600F0DC
:10188000AFFB00F0FBFF089B18330BF1010A089334
:1018900010AB43F82B0043F82A60089A80490020D7
:1018A00000F00EFBBAF1000F04460D46C0F2CD80E9
:1018B0000AF101034FEAC30874AF10AA009302EBC8
:1018C000830907EB080659F8040D00F0D7FC2246FF
:1018D0002B4600F039FD002266E90201734B2046D9
:1018E000294600F031FDBE4204460D46EBD1A8F179
:1018F000080806EB08030DF59879CDF818A0DDF877
:1019000024A0CDF810904FF000089B46BAF1000FCC
:10191000C0F29880B8F1000FC0F29480DFF8909187
:101920005D4600260027002401E0444510DCF9E96B
:101930000223F5E8020100F007FD02460B4630469F
:10194000394600F04FFB0134A24506460F46ECDA5B
:10195000049B03EBC803C3E90067009B08F101087F
:101960009845ABF1080BD1D1A69BDDF818A0DDF8A6
:101970001090032B3DD8DFE813F04300040004006F
:10198000DB00009B002409EBC306254620462946C0
:1019900076E9022300F026FB4E4504460D46F5D1BC
:1019A000039B002B00F08E800A982B4605F1004522
:1019B000224680E83000D9E9000100F011FBBAF1BD
:1019C000000F02460B460DDD012410461946F9E9C9
:1019D000022300F007FB0134A24502460B46F4DA6D
:1019E000039909B103F1004319460A9B1046C3E964
:1019F0000201059B03F007000DF51D7DBDE8F08F8A
:101A0000009B002209EBC30913461046194679E9E9
:101A1000022300F0E7FA0AF1FF3ABAF1FF3F02466B
:101A20000B46F2D1039909B103F1004319460A9B11
:101A30001046C3E90001059B03F007000DF51D7D6D
:101A4000BDE8F08F0026002782E7A69B032BD0D8A5
:101A5000DFE803F04F3030020DF59879039B002743
:101A60003E46002B00F0C780D9F80C300A9DD9F80B
:101A70000400D9F80020D9F808102F6103F10043C1
:101A8000EB60059B2A6000F1004006F100466860AB
:101A900003F007006E61A9600DF51D7DBDE8F08FB4
:101AA0000000F03F0000E03F000070410000703E89
:101AB000982F0008039B002425460DF59879002BEC
:101AC0007FF472AF204622460A9C29462B46C4E981
:101AD0000001D9E9000100F083FABAF1000F0246D3
:101AE0000B463FF771AF19460A9B1046C3E9020146
:101AF0007FE70022134695E710AB089A53F82A3087
:101B00000395183ACDF814800892002B7FF4C5AEE7
:101B100010AB03EB8A0353F8041D0AF1FF3A183A9D
:101B20000029F8D00892B8E60123D9E5002497E50A
:101B3000BAF1000F92DD4FEACA0809EB080BDBE9A6
:101B400000677BE9022330463946CDE9002300F0E7
:101B500049FA04460D4622462B46DDE9000100F015
:101B60003FFA02460B463046394600F03BFACB4579
:101B700026462F46CBE90201CBE90045E1D1BAF177
:101B8000010F7FF76BAF09EB080ADAE900670DF583
:101B90009C7B7AE902231046194632463B46CDE942
:101BA000000100F01FFA04460D4622462B46DDE9EF
:101BB000000100F015FA32463B4600F013FADA4510
:101BC00026462F46CAE90201CAE90045E1D108F1DB
:101BD000080400274C443E4650AD3846314674E96F
:101BE000022300F0FFF9AC4207460E46F5D1039BF5
:101BF000002B7FF439AFD9E900233C460A9FD9E98D
:101C00000201C7E90023059B3546C7E9020103F03D
:101C10000700C7E904450DF51D7DBDE8F08F20469E
:101C2000294600F02BFE10ABDA4643F82B0034E6D1
:101C30002DE9F04F21F00046B6F1795F85B00C46F2
:101C400090469946054604DA00F018FE002800F098
:101C500083802A4623462846214600F075FB2A4603
:101C6000234606460F4600F06FFB3FA3D3E900234F
:101C700082468B463046394600F066FB3CA3D3E9EA
:101C8000002300F0ADF932463B4600F05DFB3AA37D
:101C9000D3E9002300F0A6F932463B4600F054FB9E
:101CA00037A3D3E9002300F09BF932463B4600F00E
:101CB0004BFB35A3D3E9002300F094F90E9BCDE94B
:101CC00000019BB3404649460022334B00F03CFBE9
:101CD000DDE90023CDE902015046594600F034FB0E
:101CE00002460B46DDE9020100F07AF932463B4636
:101CF00000F02AFB42464B4600F072F924A3D3E9D8
:101D0000002306460F465046594600F01DFB02468A
:101D10000B463046394600F065F902460B46284628
:101D2000214600F05DF905B0BDE8F08FDDE9002344
:101D30003046394600F008FB15A3D3E9002300F034
:101D40004FF952465B4600F0FFFA2A46234600F060
:101D500049F905B0BDE8F08F2846214605B0BDE839
:101D6000F08F00BFAFF300807CD5CF5A3AD9E53D64
:101D7000EB9C2B8AE6E55A3E7DFEB157E31DC73E3C
:101D8000D561C119A0012A3FA6F810111111813F98
:101D9000495555555555C53F0000E03FAFF300800C
:101DA00021F00041704700BF2DE9F047C1F30A5808
:101DB000A8F2FF36132E0B460D460446024689460E
:101DC00007461DDC002E40DBDFF8F08048FA06F8FD
:101DD00008EA010E5EEA020217D035A3D3E9002318
:101DE00000F000F90022002300F03EFD20B1002D9C
:101DF00040DB29EA0805002738462946BDE8F08778
:101E0000332E06DDB6F5806F2FD020461946BDE88B
:101E1000F087A8F213424FF0FF3A2AFA02FA1AEAC0
:101E2000000FF2D022A3D3E9002300F0DBF8002258
:101E3000002300F019FD0028DED0002D1FDB4D46E9
:101E400027EA0A0738462946D8E719A3D3E9002329
:101E500000F0C8F80022002300F006FD0028CBD0D7
:101E6000002D1ADB00273D46C6E702460B4600F070
:101E7000B9F8CCE74FF4801333419944B9E7142EF5
:101E800008D0C8F5866808F10308012303FA08F3AF
:101E90001F19D4D309F10109D1E725F00042064BFF
:101EA000224318BF1D460027A6E700BFAFF30080FE
:101EB0009C7500883CE4377E0000F0BFFFFF0F00F8
:101EC000F8B5C1F30A5604460D460B46174616BB35
:101ED00021F00043034332D00022374B00F034FAA4
:101EE000364A974204460D460B4637DBC1F30A5685
:101EF000363E3E4440F2FE72964215DD22462B46A7
:101F000029A1D1E9000100F05FF827A3D3E900235C
:101F100000F01AFAF8BD40F2FF72964224D03E4417
:101F200040F2FE729642E9DC002E09DD23F0FF4309
:101F300023F4E00343EA065520462946F8BDF8BDE0
:101F400016F1350F15DA4CF250339F4222462B46DC
:101F50001DDC17A1D1E9000100F036F814A3D3E984
:101F6000002300F0F1F9F8BD02460B4600F03AF804
:101F7000F8BD23F0FF4323F4E003363643EA065569
:101F80002046294600220E4B00F0DEF9F8BD06A1DE
:101F9000D1E9000100F018F803A3D3E9002300F011
:101FA000D3F9F8BDAFF300809C7500883CE4377E20
:101FB00059F3F8C21F6EA50100005043B03CFFFF6B
:101FC0000000903CAFF3008003F0004321F000429A
:101FD00043EA0201704700BF81F0004102E000BF08
:101FE00083F0004330B54FEA41044FEA430594EAD9
:101FF000050F08BF90EA020F1FBF54EA000C55EA14
:10200000020C7FEA645C7FEA655C00F0E2804FEAE4
:102010005454D4EB5555B8BF6D420CDD2C4480EAC6
:10202000020281EA030382EA000083EA010180EAF6
:10203000020281EA0303362D88BF30BD11F0004F44
:102040004FEA01314FF4801C4CEA113102D040427A
:1020500061EB410113F0004F4FEA03334CEA1333B5
:1020600002D0524263EB430394EA050F00F0A780CD
:10207000A4F10104D5F1200E0DDB02FA0EFC22FAC8
:1020800005F2801841F1000103FA0EF2801843FABC
:1020900005F359410EE0A5F120050EF1200E012AAD
:1020A00003FA0EFC28BF4CF0020C43FA05F3C018EB
:1020B00051EBE37101F0004507D54FF0000EDCF164
:1020C000000C7EEB00006EEB0101B1F5801F1BD30D
:1020D000B1F5001F0CD349085FEA30004FEA3C0C11
:1020E00004F101044FEA445212F5800F80F09A8007
:1020F000BCF1004F08BF5FEA500C50F1000041EB0B
:10210000045141EA050130BD5FEA4C0C404141EB0E
:10211000010111F4801FA4F10104E9D191F0000F35
:1021200004BF01460020B1FA81F308BF2033A3F1B8
:102130000B03B3F120020CDA0C3208DD02F1140CAF
:10214000C2F10C0201FA0CF021FA02F10CE002F1EA
:102150001402D8BFC2F1200C01FA02F120FA0CFCE3
:10216000DCBF41EA0C019040E41AA2BF01EB04512C
:10217000294330BD6FEA04041F3C1CDA0C340EDC2A
:1021800004F11404C4F1200220FA04F001FA02F36D
:1021900040EA030021FA04F345EA030130BDC4F12B
:1021A0000C04C4F1200220FA02F001FA04F340EA20
:1021B0000300294630BD21FA04F0294630BD94F0D1
:1021C000000F83F4801306BF81F480110134013DB8
:1021D0004EE77FEA645C18BF7FEA655C29D094EA29
:1021E000050F08BF90EA020F05D054EA000C04BFA7
:1021F0001946104630BD91EA030F1EBF0021002092
:1022000030BD5FEA545C05D14000494128BF41F030
:10221000004130BD14F580043CBF01F5801130BD94
:1022200001F0004545F0FE4141F470014FF000001F
:1022300030BD7FEA645C1ABF194610467FEA655CD0
:102240001CBF0B46024650EA013406BF52EA033572
:1022500091EA030F41F4002130BD00BF90F0000F60
:1022600004BF0021704730B54FF4806404F132049C
:102270004FF000054FF0000150E700BF90F0000F55
:1022800004BF0021704730B54FF4806404F132047C
:1022900010F0004548BF40424FF000013EE700BF4C
:1022A00042004FEAE2014FEA31014FEA02701FBFDC
:1022B00012F07F4393F07F4F81F06051704792F0AE
:1022C000000F14BF93F07F4F704730B54FF4607428
:1022D00001F0004521F0004120E700BF50EA010273
:1022E00008BF704730B54FF000050AE050EA010220
:1022F00008BF704730B511F0004502D5404261EB90
:1023000041014FF4806404F132045FEA915C3FF4D0
:10231000DCAE4FF003025FEADC0C18BF03325FEA69
:10232000DC0C18BF033202EBDC02C2F1200300FA1E
:1023300003FC20FA02F001FA03FE40EA0E0021FA43
:1023400002F11444C1E600BF70B54FF0FF0C4CF42D
:10235000E06C1CEA11541DBF1CEA135594EA0C0FE3
:1023600095EA0C0F00F0DEF82C4481EA030621EA1E
:102370004C5123EA4C5350EA013518BF52EA033559
:1023800041F4801143F4801338D0A0FB02CE4FF00B
:102390000005E1FB02E506F00042E0FB03E54FF03B
:1023A0000006E1FB03569CF0000F18BF4EF0010E33
:1023B000A4F1FF04B6F5007F64F5407404D25FEA2F
:1023C0004E0E6D4146EB060642EAC62141EA5551E2
:1023D0004FEAC52040EA5E504FEACE2EB4F1FD0C24
:1023E00088BFBCF5E06F1ED8BEF1004F08BF5FEAA2
:1023F000500E50F1000041EB045170BD06F0004654
:1024000046EA010140EA020081EA0301B4EB5C0400
:10241000C2BFD4EB0C0541EA045170BD41F48011F8
:102420004FF0000E013C00F3AB8014F1360FDEBF1D
:10243000002001F0004170BDC4F10004203C35DAF9
:102440000C341BDC04F11404C4F1200500FA05F37C
:1024500020FA04F001FA05F240EA020001F000421D
:1024600021F0004110EBD37021FA04F642EB060193
:102470005EEA430E08BF20EAD37070BDC4F10C04BD
:10248000C4F1200500FA04F320FA05F001FA04F281
:1024900040EA020001F0004110EBD37041F100016D
:1024A0005EEA430E08BF20EAD37070BDC4F1200578
:1024B00000FA05F24EEA020E20FA04F301FA05F2E0
:1024C00043EA020321FA04F001F0004121FA04F288
:1024D00020EA020000EBD3705EEA430E08BF20EA58
:1024E000D37070BD94F0000F0FD101F00046400092
:1024F00041EB010111F4801F08BF013CF7D041EA14
:10250000060195F0000F18BF704703F00046520017
:1025100043EB030313F4801F08BF013DF7D043EAE8
:102520000603704794EA0C0F0CEA135518BF95EA9E
:102530000C0F0CD050EA410618BF52EA4306D1D125
:1025400081EA030101F000414FF0000070BD50EA44
:10255000410606BF1046194652EA430619D094EACE
:102560000C0F02D150EA013613D195EA0C0F05D1B8
:1025700052EA03361CBF104619460AD181EA03010C
:1025800001F0004141F0FE4141F470014FF00000C4
:1025900070BD41F0FE4141F4780170BD70B54FF05F
:1025A000FF0C4CF4E06C1CEA11541DBF1CEA1355DF
:1025B00094EA0C0F95EA0C0F00F0A7F8A4EB0504C1
:1025C00081EA030E52EA03354FEA013100F08880B8
:1025D0004FEA03334FF0805545EA131343EA126381
:1025E0004FEA022245EA111545EA10654FEA002636
:1025F0000EF000419D4208BF964244F1FD0404F5EF
:10260000407402D25B084FEA3202B61A65EB03054A
:102610005B084FEA32024FF480104FF4002CB6EB07
:10262000020E75EB030E22BFB61A754640EA0C0087
:102630005B084FEA3202B6EB020E75EB030E22BFC7
:10264000B61A754640EA5C005B084FEA3202B6EB08
:10265000020E75EB030E22BFB61A754640EA9C00C7
:102660005B084FEA3202B6EB020E75EB030E22BF97
:10267000B61A754640EADC0055EA060E18D04FEA55
:10268000051545EA16754FEA06164FEAC30343EAF5
:1026900052734FEAC2025FEA1C1CC0D111F4801FC2
:1026A0000BD141EA00014FF000004FF0004CB6E7BB
:1026B00011F4801F04BF01430020B4F1FD0C88BF5A
:1026C000BCF5E06F3FF6AFAEB5EB030C04BFB6EB65
:1026D000020C5FEA500C50F1000041EB045170BD58
:1026E0000EF0004E4EEA113114EB5C04C2BFD4EB85
:1026F0000C0541EA045170BD41F480114FF0000E09
:10270000013C90E645EA060E8DE60CEA135594EA84
:102710000C0F08BF95EA0C0F3FF43BAF94EA0C0F87
:102720000AD150EA01347FF434AF95EA0C0F7FF4FC
:1027300025AF104619462CE795EA0C0F06D152EA50
:1027400003353FF4FDAE1046194622E750EA410634
:1027500018BF52EA43067FF4C5AE50EA41047FF445
:102760000DAF52EA43057FF4EBAE12E74FF0FF3CAA
:1027700006E000BF4FF0010C02E000BF4FF0010C7B
:102780004DF804CD4FEA410C7FEA6C5C4FEA430CF4
:1027900018BF7FEA6C5C1BD001B050EA410C0CBF43
:1027A00052EA430C91EA030F02BF90EA020F0020A5
:1027B000704710F1000F91EA030F58BF994208BF0C
:1027C00090422CBFD8176FEAE37040F001007047C9
:1027D0004FEA410C7FEA6C5C02D150EA013C07D120
:1027E0004FEA430C7FEA6C5CD6D152EA033CD3D06B
:1027F0005DF8040B704700BF8446104662468C4665
:102800001946634600E000BF01B5FFF7B7FF002897
:1028100048BF10F1000F01BD4DF808EDFFF7F4FFC0
:102820000CBF012000205DF808FB00BF4DF808ED4B
:10283000FFF7EAFF34BF012000205DF808FB00BF6E
:102840004DF808EDFFF7E0FF94BF012000205DF890
:1028500008FB00BF4DF808EDFFF7CEFF94BF012045
:1028600000205DF808FB00BF4DF808EDFFF7C4FF3E
:1028700034BF012000205DF808FB00BF4FEA410291
:1028800012F5001215D211D56FF47873B3EB6252C2
:1028900012D94FEAC12343F0004343EA505311F0E9
:1028A000004F23FA02F018BF404270474FF000007B
:1028B000704750EA013005D111F0004008BF6FF0B9
:1028C000004070474FF00000704700BF4A0011D22F
:1028D00012F5001211D20DD56FF47873B3EB62527A
:1028E0000ED44FEAC12343F0004343EA505323FA86
:1028F00002F070474FF00000704750EA013002D1FB
:102900004FF0FF3070474FF00000704780F00040FC
:1029100002E000BF81F0004142001FBF5FEA4103B7
:1029200092EA030F7FEA226C7FEA236C6AD04FEAB7
:102930001262D2EB1363C1BFD218414048404140FC
:10294000B8BF5B42192B88BF704710F0004F40F4AE
:10295000000020F07F4018BF404211F0004F41F4CA
:10296000000121F07F4118BF494292EA030F3FD096
:10297000A2F1010241FA03FC10EB0C00C3F12003A9
:1029800001FA03F100F0004302D5494260EB400038
:10299000B0F5000F13D3B0F1807F06D340084FEAA3
:1029A000310102F10102FE2A51D2B1F1004F40EB98
:1029B000C25008BF20F0010040EA03007047490000
:1029C00040EB000010F4000FA2F10102EDD1B0FACB
:1029D00080FCACF1080CB2EB0C0200FA0CF0AABFC0
:1029E00000EBC25052421843BCBFD040184370475E
:1029F00092F0000F81F4000106BF80F40000013264
:102A0000013BB5E74FEA41037FEA226C18BF7FEA3A
:102A1000236C21D092EA030F04D092F0000F08BF7C
:102A20000846704790EA010F1CBF0020704712F063
:102A30007F4F04D1400028BF40F00040704712F1A2
:102A400000723CBF00F50000704700F0004343F007
:102A5000FE4040F4000070477FEA226216BF08463D
:102A60007FEA23630146420206BF5FEA412390EA00
:102A7000010F40F4800070474FF0000304E000BFF6
:102A800010F0004348BF40425FEA000C08BF7047A7
:102A900043F0964301464FF000001CE050EA01026B
:102AA00008BF70474FF000030AE000BF50EA010280
:102AB00008BF704711F0004302D5404261EB41016D
:102AC0005FEA010C02BF84460146002043F0B64392
:102AD00008BFA3F18053A3F50003BCFA8CF2083AB7
:102AE000A3EBC25310DB01FA02FC634400FA02FCC0
:102AF000C2F12002BCF1004F20FA02F243EB0200C7
:102B000008BF20F00100704702F1200201FA02FC28
:102B1000C2F1200250EA4C0021FA02F243EB02001B
:102B200008BF20EADC7070474FF0FF0C1CEAD0525F
:102B30001EBF1CEAD15392EA0C0F93EA0C0F6FD020
:102B40001A4480EA010C400218BF5FEA41211ED0FE
:102B50004FF0006343EA501043EA5111A0FB0131EA
:102B60000CF00040B1F5000F3EBF490041EAD371BF
:102B70005B0040EA010062F17F02FD2A1DD8B3F13B
:102B8000004F40EBC25008BF20F00100704790F0AA
:102B9000000F0CF0004C08BF49024CEA502040EAFC
:102BA00051207F3AC2BFD2F1FF0340EAC2507047C2
:102BB00040F400004FF00003013A5DDC12F1190F00
:102BC000DCBF00F000407047C2F10002410021FA72
:102BD00002F1C2F1200200FA02FC5FEA310040F18A
:102BE000000053EA4C0308BF20EADC70704792F003
:102BF000000F00F0004C02BF400010F4000F013A3B
:102C0000F9D040EA0C0093F0000F01F0004C02BF35
:102C1000490011F4000F013BF9D041EA0C018FE7A4
:102C20000CEAD15392EA0C0F18BF93EA0C0F0AD0AA
:102C300030F0004C18BF31F0004CD8D180EA0100D0
:102C400000F00040704790F0000F17BF90F0004F69
:102C5000084691F0000F91F0004F14D092EA0C0F4B
:102C600001D142020FD193EA0C0F03D14B0218BFDE
:102C7000084608D180EA010000F0004040F0FE4024
:102C800040F40000704740F0FE4040F440007047C0
:102C90004FF0FF0C1CEAD0521EBF1CEAD15392EA3F
:102CA0000C0F93EA0C0F69D0A2EB030280EA010C2F
:102CB00049024FEA402037D04FF0805343EA1111C8
:102CC00043EA10130CF000408B4238BF5B0042F126
:102CD0007D024FF4000C8B4224BF5B1A40EA0C00CB
:102CE000B3EB510F24BFA3EB510340EA5C00B3EBFD
:102CF000910F24BFA3EB910340EA9C00B3EBD10FEB
:102D000024BFA3EBD10340EADC001B0118BF5FEA3C
:102D10001C1CE0D1FD2A3FF650AF8B4240EBC25065
:102D200008BF20F0010070470CF0004C4CEA502026
:102D30007F32C2BFD2F1FF0340EAC250704740F475
:102D400000004FF00003013A37E792F0000F00F067
:102D5000004C02BF400010F4000F013AF9D040EAE5
:102D60000C0093F0000F01F0004C02BF490011F479
:102D7000000F013BF9D041EA0C0195E70CEAD15371
:102D800092EA0C0F08D142027FF47DAF93EA0C0F58
:102D90007FF470AF084676E793EA0C0F04D14B023C
:102DA0003FF44CAF08466EE730F0004C18BF31F0EE
:102DB000004CCAD130F000427FF45CAF31F00043E8
:102DC0007FF43CAF5FE700BF42000ED2B2F1FE4F8E
:102DD0000BD34FF09E03B3EB126209D44FEA0023EA
:102DE00043F0004323FA02F070474FF000007047B1
:102DF00012F1610F01D1420202D14FF0FF30704752
:102E00004FF00000704700BFFB21F93FFB21094054
:102E10007CD91240FB2119407A6A1F407CD922409C
:102E2000BBFD2540FB2129403A462C407A6A2F40C1
:102E30005C4731407CD932409C6B3440BBFD35400F
:102E4000DB8F3740FB2139401BB43A403A463C40C7
:102E50005AD83D407A6A3F404C7E40405C474140F2
:102E60006C1042407CD942408CA243409C6B444051
:102E7000AC344540BBFD4540CBC64640DB8F4740A8
:102E8000EB584840FB21494083F9A200444E6E00B4
:102E9000FC291500D1572700DD34F50062DBC000A6
:102EA0003C999500419043006351FE00BBDEAB00AE
:102EB000B761C5003A6E2400D24D42004906E000D9
:102EC00009EA2E001C92D100EB1DFE0029B11C0066
:102ED000E83EA700F535820044BB2E009CE9840043
:102EE000B4267000417E5F00D691390053833900CB
:102EF0009CF439008B5F840028F9BD00F81F3B006B
:102F0000DEFF97000F980500112FEF000A5A8B0083
:102F10006D1F6D00CF7E360009CB2700464FB700EE
:102F20009E663F002DEA5F00BA277500E5EBC700FB
:102F30003D7BF100F739070092528A00FB6BEA00F3
:102F40001FB15F00085D8D00300356007BFC46001A
:102F5000F0AB6B0020BCCF0036F49A00E3A91D0053
:102F60005E619100081BE60085996500A0145F0072
:102F70008D40680080D8FF0027734D0006063100A1
:102F8000CA561500C9A873007BE260006B8CC000B4
:102F90000200000003000000040000000600000022
:102FA00000000040FB21F93F000000002D44743E6A
:102FB000000000809846F83C0000006051CC783B4F
:102FC00000000080831BF0390000004020257A3883
:102FD000000000802282E336000000001DF3693506
:102FE00000000000010203040102030406070809AF
:042FF00001000000DC
:0400000508000000EF
:00000001FF
