:020000040800F2
:10000000200D0020D102000829030008F311000888
:100010002903000829030008290300080000000044
:10002000000000000000000000000000290300089C
:100030002903000800000000290300082903000824
:1000400029030008290300082903000829030008E0
:1000500029030008290300082903000829030008D0
:1000600029030008290300082903000829030008C0
:1000700029030008290300082903000829030008B0
:1000800029030008290300082903000829030008A0
:100090002903000829030008290300082903000890
:1000A0002903000829030008290300082903000880
:1000B0002903000829030008290300082903000870
:1000C0002903000829030008290300082903000860
:1000D0002903000829030008290300082903000850
:1000E0002903000829030008290300082903000840
:1000F0002903000829030008290300082903000830
:10010000290300082903000829030008290300081F
:10011000290300082903000829030008290300080F
:1001200029030008290300082903000829030008FF
:1001300029030008290300082903000829030008EF
:1001400029030008290300082903000829030008DF
:1001500029030008290300082903000829030008CF
:1001600029030008290300082903000829030008BF
:1001700029030008290300082903000829030008AF
:10018000290300082903000880B582B000AF786019
:10019000154B1B785A1CD1B2134A11701A467B6852
:1001A000D9B2124B9954104B1B781A460F4B0021B1
:1001B00099540D4B1B7801330F2B05D87B680A2B04
:1001C00002D07B68002B0CD1074B00221A70074B22
:1001D00004201946002201F003F80346002B00D04A
:1001E00000BF0837BD4680BD5004002040040020F9
:1001F00080B485B000AF786039600023FB600023D5
:10020000BB60134B1B68FB607B6840F6FE7202FA12
:1002100003F3DB43FA681340FB603B681A683B68F2
:100220005B681A433B689B681A433B68DB6813436F
:10023000BB607B68BA6802FA03F3FA681343FB6099
:10024000034AFB6813601437BD465DF8047B7047B2
:100250000074004080B483B000AF78600B46FB7040
:10026000FB78002B09D00C490B4B1A687B680120E6
:1002700000FA03F313430B6009E00749064B1A68C1
:100280007B68012000FA03F3DB4313400B600C375B
:10029000BD465DF8047B70470074004080B485B0B3
:1002A00000AF78600B467B800023FB60074BFB6050
:1002B000FA687B6813440833FB60FB681A467B8846
:1002C00013601437BD465DF8047B7047007400402E
:1002D00080B582B000AF0F4B7B600F4B3B6007E0F7
:1002E0003B681A1D3A607A68111D796012681A60BD
:1002F0003B680A4A9342F3D309480A494FF0000287
:100300008842B8BF40F8042BFADB00F011F8083738
:10031000BD4680BD001400080000002040040020FD
:10032000400400202005002080B400AFFEE700BF9D
:1003300080B584B000AF00F067FF00F04DFE00F024
:1003400057FE00F06DFE01F005F801F00FF801F026
:1003500025F83B46184600F02DF8FB681248194670
:1003600000F0E2FD114800F08BFA00BF0F480221B7
:1003700000F0C0FA0346002BF8D00C4800F0ACFAAD
:1003800003461A460A4B1A80094B1B88B3F5805F57
:1003900003D3074B40F6FF721A80054B1B880020E1
:1003A0001946FFF77BFFDDE7C81300080020014076
:1003B0001C05002080B489B000AF78600023BB61C9
:1003C00000237B610023FB6102233B610023FB6070
:1003D0000223BB60484B9B6803F00C03BB61BB6905
:1003E000042B07D0082B09D0002B3FD17B68434A50
:1003F0001A603FE07B68424A1A603BE03E4B5B6814
:1004000003F480039B0DFB603B4B5B6803F03F03F1
:10041000BB60FB68002B0DD0394ABB68B2FBF3F21E
:10042000354B596847F6C0730B409B0903FB02F339
:10043000FB610CE0314ABB68B2FBF3F22E4B59680A
:1004400047F6C0730B409B0903FB02F3FB612A4B89
:100450005B6803F440331B0C01335B003B61FA69BA
:100460003B69B2FBF3F27B681A6003E07B68234AC6
:100470001A6000BF204B9B6803F0F003BB61BB69AF
:100480001B09BB611F4ABB6913441B78DBB27B614C
:100490007B681A687B69DA407B685A60164B9B68F8
:1004A00003F4E053BB61BB699B0ABB61154ABB699E
:1004B00013441B78DBB27B617B685A687B69DA4046
:1004C0007B689A600C4B9B6803F46043BB61BB691B
:1004D0005B0BBB610B4ABB6913441B78DBB27B61CE
:1004E0007B685A687B69DA407B68DA602437BD46EE
:1004F0005DF8047B704700BF003802400024F40020
:1005000000127A000000002080B483B000AF786051
:100510000B46FB70FB78002B06D00949084B1A6B81
:100520007B6813430B6306E00549054B1A6B7B6838
:10053000DB4313400B630C37BD465DF8047B70470B
:100540000038024080B483B000AF78600B46FB7087
:10055000FB78002B06D00949084B1A6C7B681343C3
:100560000B6406E00549054B1A6C7B68DB431340BE
:100570000B640C37BD465DF8047B704700380240C1
:1005800080B483B000AF78600B46FB70FB78002B23
:1005900006D00949084B5A6C7B6813434B6406E04C
:1005A0000549054B5A6C7B68DB4313404B640C37A1
:1005B000BD465DF8047B70470038024080B485B0CA
:1005C00000AF786039600023FB600023FB727B681A
:1005D0005B68FB60FB6823F0407323F48073FB606F
:1005E0003B681B791A023B681B681343FA68134384
:1005F000FB607B68FA685A607B689B68FB60FA68FE
:10060000174B1340FB603B681A693B68DB681A4371
:100610003B689B681A433B685B795B001343FA684D
:100620001343FB607B68FA689A607B68DB6AFB6057
:10063000FB6823F47003FB603B681B7D013BDAB26F
:10064000FB7A1343FB72FB7A1B05FA681343FB60CA
:100650007B68FA68DA621437BD465DF8047B704740
:10066000FDF7FFC080B485B000AF78600023FB6069
:100670000E4B5B68FB60FA680D4B1340FB607B68B8
:100680001A687B685B681A437B689B681A437B68BF
:10069000DB681343FA681343FB60044AFB6853604A
:1006A0001437BD465DF8047B704700BF002301404E
:1006B000E030FCFF80B483B000AF78600B46FB7085
:1006C000FB78002B06D07B689B6843F001027B68B7
:1006D0009A6005E07B689B6823F001027B689A6062
:1006E0000C37BD465DF8047B704700BF80B485B011
:1006F00000AF7860084611461A460346FB700B4669
:10070000BB7013467B700023FB600023BB60FB784B
:10071000092B23D97B68DB68FB60FB78A3F10A0215
:1007200013465B001344072202FA03F3BB60BB6865
:10073000DB43FA681340FB607978FB78A3F10A0287
:1007400013465B00134401FA03F3BB60FA68BB680D
:100750001343FB607B68FA68DA601EE07B681B6904
:10076000FB60FA7813465B001344072202FA03F396
:10077000BB60BB68DB43FA681340FB607978FA78AA
:1007800013465B00134401FA03F3BB60FA68BB68CD
:100790001343FB607B68FA681A61BB78062B21D88B
:1007A0007B685B6BFB60BB785A1E13469B0013444F
:1007B0001F2202FA03F3BB60BB68DB43FA681340F5
:1007C000FB60F978BB785A1E13469B00134401FA6C
:1007D00003F3BB60FA68BB681343FB607B68FA688D
:1007E0005A6347E0BB780C2B21D87B681B6BFB60FE
:1007F000BB78DA1F13469B0013441F2202FA03F34F
:10080000BB60BB68DB43FA681340FB60F978BB78D8
:10081000DA1F13469B00134401FA03F3BB60FA6826
:10082000BB681343FB607B68FA681A6322E07B684D
:10083000DB6AFB60BB78A3F10D0213469B001344F7
:100840001F2202FA03F3BB60BB68DB43FA68134064
:10085000FB60F978BB78A3F10D0213469B001344AB
:1008600001FA03F3BB60FA68BB681343FB607B6863
:10087000FA68DA621437BD465DF8047B704700BF42
:1008800080B483B000AF78607B689B6843F080429F
:100890007B689A600C37BD465DF8047B704700BFEB
:1008A00080B483B000AF78600B46FB70FB78002B00
:1008B00006D07B689B6843F480627B689A6005E0A1
:1008C0007B689B6823F480627B689A600C37BD4626
:1008D0005DF8047B704700BF80B483B000AF7860E0
:1008E0007B68DB6C9BB218460C37BD465DF8047B19
:1008F000704700BF80B485B000AF78600B46FB70D6
:100900000023FB737B681A68FB781340002B02D02E
:100910000123FB7301E00023FB73FB7B18461437B4
:10092000BD465DF8047B704780B582B000AF0346DA
:10093000FB71FB791846FFF727FC0837BD4680BDE1
:1009400080B483B000AF78600B46FB707B68FA78A8
:100950001A70012318460C37BD465DF8047B7047BA
:1009600080B485B000AF786039600023FB600AE096
:100970007B685A1C7A603A68511C396012781A7088
:10098000FB680133FB603B681B78002BF0D1FB68F0
:1009900018461437BD465DF8047B704780B586B0B5
:1009A00000AFF8607A603B600B46FB7200237B610E
:1009B0007B68013B7B603B68092B10D93B681E4A72
:1009C000A2FB0323DB08FA7AF86811467A68FFF77E
:1009D000E5FF78617B69FA681344FB6011E00DE084
:1009E000FB7AF8681946FFF7ABFFFB680133FB6041
:1009F0007B6901337B617B68013B7B607B68002BFB
:100A0000EEDC39680C4BA3FB0123DA0813469B008C
:100A100013445B00CA1AD3B23033DBB2F86819460C
:100A2000FFF78EFF02467B6913447B617B691846A2
:100A30001837BD4680BD00BFCDCCCCCC90B587B0BB
:100A400000AFF8607A603B600B46FB7200237B616D
:100A50003B68002B03DA3B685B423B6101E03B688B
:100A60003B617B68013B7B603B69092B25D93B6877
:100A7000002B0FDA3B69314AA2FB0323DB085B4200
:100A80001C46FB7AF86819467A682346FFF7D6FFBA
:100A900078610DE03B69294AA2FB0323DB081C4671
:100AA000FB7AF86819467A682346FFF7C7FF786132
:100AB0007B69FA681344FB6025E03B68002B02DA8F
:100AC0007B68013B7B600DE0FB7AF8681946FFF715
:100AD00037FFFB680133FB607B6901337B617B6817
:100AE000013B7B607B68002BEEDC3B68002B0ADA65
:100AF000F8682D21FFF724FF02467B6913447B61D0
:100B0000FB680133FB6039690C4BA3FB0123DA0856
:100B100013469B0013445B00CA1AD3B23033DBB2D6
:100B2000F8681946FFF70CFF02467B6913447B61A6
:100B30007B6918461C37BD4690BD00BFCDCCCCCCE0
:100B400090B589B002AFF8607A601A460B46FB7226
:100B50001346BB7200237B617B68013B7B60BB6AF1
:100B60001B09002B13D0BB6A1B09FA7ABC7A0093CD
:100B7000F86811467A682346FFF7E2FF02467B6970
:100B800013447B617B69FA681344FB6011E00DE05C
:100B9000FB7AF8681946FFF7D3FEFB680133FB6068
:100BA0007B6901337B617B68013B7B607B68002B49
:100BB000EEDCBB6A03F00F03092B0BD8BB6ADBB278
:100BC00003F00F03DBB23033DBB2F8681946FFF7EE
:100BD000B7FE19E0BB7A002B0BD0BB6ADBB203F087
:100BE0000F03DBB23733DBB2F8681946FFF7A8FE14
:100BF0000AE0BB6ADBB203F00F03DBB25733DBB2B0
:100C0000F8681946FFF79CFE7B6901337B617B69BD
:100C100018461C37BD4690BD90B58BB002AFF8604A
:100C2000B9607A603B600023BB6100237B61FB6895
:100C3000002B02D0FB6800221A70FCE07B681B7856
:100C4000252B0BD0FB685A1CFA607A68511C79601E
:100C500012781A707B6901337B61ECE07B680133A9
:100C60001B78252B0BD1FB685A1CFA6025221A70C1
:100C70007B6802337B607B6901337B61DBE020238F
:100C8000FB770023BB777B6801337B607B681B7835
:100C9000302B04D13023FB777B6801337B600EE07F
:100CA000BB7F1A46920013445B00DAB27B681B7864
:100CB0001344DBB2303BBB777B6801337B607B68DE
:100CC0001B782F2B03D97B681B78392BE8D9BA7F87
:100CD0007B6913441A46BB689A4205D9BB68DAB2ED
:100CE0007B69DBB2D31ABB777B681B78583B202B20
:100CF00000F2938001A252F823F000BFD30D000848
:100D00001B0E00081B0E00081B0E00081B0E00081F
:100D10001B0E00081B0E00081B0E00081B0E00080F
:100D20001B0E00081B0E0008050E0008810D0008B0
:100D30001B0E00081B0E00081B0E00081B0E0008EF
:100D4000810D00081B0E00081B0E00081B0E00087A
:100D50001B0E00081B0E00081B0E00081B0E0008CF
:100D60001B0E00081B0E0008F10D00081B0E0008EA
:100D70009B0D00081B0E00081B0E0008B50D000897
:100D8000BC7F3B681A1D3A601B68FA7FF868114601
:100D90002246FFF753FEB86142E0BC7F3B681A1D54
:100DA0003A601B68FA7FF86811462246FFF7F6FDA5
:100DB000B86135E0BC7F3B681A1D3A601B68FA7F5A
:100DC0000093F868114622460023FFF7B9FEB86188
:100DD00026E0BC7F3B681A1D3A601B68FA7F0093CF
:100DE000F868114622460123FFF7AAFEB86117E012
:100DF0003B681A1D3A601B68F8681946FFF7B0FD9A
:100E0000B8610DE03B681A1D3A601B68DBB2F868F8
:100E10001946FFF795FDB86102E04FF0FF3325E07A
:100E20007B6801337B60BB69FA681344FB607A69B5
:100E3000BB6913447B617B681B78002B04D07A6903
:100E4000BB689A42FFF4FAAE7A69BB689A4203D251
:100E5000FB6800221A7008E0FB68013BFB60FB683E
:100E600000221A707B69013B7B617B69184624373D
:100E7000BD4690BD80B584B000AFF860B9607A60BF
:100E8000F8686421BA687B68FFF7C6FE0346184617
:100E90001037BD4680BD00BFB0B5A6B000AFF8604A
:100EA000B9607A60144B07F110041D460FCD0FC4D2
:100EB0000FCD0FC42B68236007F134031846B968BF
:100EC0007A68FFF7D7FF0346632B09DD0B4B1B68DE
:100ED000DB6807F110021046194600F059F8FEE7EA
:100EE00007F134031846F96800F052F80346184633
:100EF0009837BD46B0BD00BFDC13000838040020A1
:100F000080B582B000AF78603960064B1B689B6883
:100F1000184679683A68FFF7BFFF03461846083756
:100F2000BD4680BD380400200FB480B582B000AF4C
:100F300007F114033B6038693968FFF7E1FF786017
:100F40007B6818460837BD46BDE8804004B070474E
:100F500080B582B000AF786039600C4B1B689A682E
:100F60003B689A4205D0094B1B68DA683B689A4295
:100F700006D17B68DBB21846FFF7D6FC7B6801E040
:100F80004FF0FF3318460837BD4680BD38040020B7
:100F900080B584B000AF786039600023FB6012E058
:100FA0007B681B7818463968FFF7D2FF0346B3F118
:100FB000FF3F02D14FF0FF330AE0FB680133FB60D3
:100FC0007B6801337B607B681B78002BE8D1FB6872
:100FD00018461037BD4680BD80B500AF0420012102
:100FE000FFF792FA4FF480700121FFF7C9FA80BD34
:100FF00080B582B000AF3B46184600F0D7F8012319
:101000003B6003233B710023FB713B4603481946B9
:1010100000F03EF80837BD4680BD00BF0008024022
:1010200080B58AB000AF0023BB610023FB610023C1
:101030003B624FF470637B6207F118031846FFF7B9
:1010400011FB00233B6000233B7100237B710023D5
:10105000BB600023FB6000233B6101233B753B46E3
:101060000A481946FFF7AAFA08480A210122002374
:10107000FFF73CFB05480121FFF712FC0348012163
:10108000FFF718FB2837BD4680BD00BF0020014098
:1010900080B487B000AF7860396000237B610023A3
:1010A0003B610023FB6000237B6176E07B690122CA
:1010B00002FA03F33B613B681A683B691340FB602B
:1010C000FA683B699A4265D17B681A687B695B0064
:1010D000194603238B40DB431A407B681A607B6808
:1010E0001A683B681B7919467B695B0001FA03F3B8
:1010F0001A437B681A603B681B79012B03D03B685D
:101100001B79022B2ED17B689A687B695B0019469C
:1011100003238B40DB431A407B689A607B689A68A4
:101120003B685B7919467B695B0001FA03F31A435C
:101130007B689A607B685A687B699BB21946012379
:101140008B40DB431A407B685A607B685B683A6877
:10115000927911467A6992B201FA02F292B21A4376
:101160007B685A607B68DA687B699BB25B0003210D
:1011700001FA03F3DB431A407B68DA607B68DA68C4
:101180003B68DB7919467B695B0001FA03F31A437C
:101190007B68DA607B6901337B617B690F2B85D9C2
:1011A0001C37BD465DF8047B704700BF80B483B038
:1011B00000AF78607B684FF6FF721A607B68002290
:1011C0001A717B6800225A717B6800229A717B68D1
:1011D0000022DA710C37BD465DF8047B704700BF12
:1011E000ABBE01E000207047002A00D01060012053
:1011F000704706980188034A914202D10430069054
:101200007047FEE7ABBE000080B500AF114A114B3E
:101210001B6843F0010313600E4B00229A600D4AD5
:101220000C4B1B6823F0847323F480331360094B49
:10123000094A5A60074A074B1B6823F4802313604E
:10124000044B0022DA6000F00BF8044B4FF0006210
:101250009A6080BD003802401030002400ED00E0AC
:1012600080B483B000AF00237B6000233B60354A2D
:10127000344B1B6843F480331360324B1B6803F418
:1012800000333B607B6801337B603B68002B03D1FC
:101290007B68B3F5A06FF0D12A4B1B6803F40033D1
:1012A000002B02D001233B6001E000233B603B6840
:1012B000012B42D1234A234B1B6C43F08053136410
:1012C000214A214B1B6843F4804313601D4A1D4B88
:1012D0009B6893601B4A1B4B9B6843F400439360DD
:1012E000184A184B9B6843F4A0539360154B174A58
:1012F0005A60144A134B1B6843F08073136000BF9D
:10130000104B1B6803F00073002BF9D0104B40F218
:1013100005621A600B4A0B4B9B6823F00303936032
:10132000084A084B9B6843F00203936000BF054BDB
:101330009B6803F00C03082BF9D10C37BD465DF810
:10134000047B70470038024000700040085440079A
:10135000003C024080B500AF01200121FFF7D4F826
:101360004FF000500121FFF7EDF880BD80B582B04D
:1013700000AF3B461846FFF719FF10233B600323DD
:101380003B710023FB713B4603481946FFF780FE83
:101390000837BD4680BD00BF0000024080B584B064
:1013A00000AF00233B6000237B600023FB603B46D3
:1013B00000201946FEF71CFF00200121FEF74AFF1E
:1013C0001037BD4680BD00BF50434C4B3220537098
:1013D0006565643A2025640D0A0000007374646931
:1013E0006F2E633A20696E637265617365204D41AB
:1013F000585F535452494E475F53495A450A0D00AE
:1014000000000000010203040102030406070809AA
:1014100000000000000000000100000000000000CB
:1014200000000000000000000000000000000000BC
:1014300000000000000000000000000000000000AC
:10144000000000000000000000000000000000009C
:10145000000000000000000000000000000000008C
:101830000000000000000000100000200000000078
:0400000508000000EF
:00000001FF
